:10000000D6EF09F00000000000EF00F00000000053
:0A0010000000000000000000F3D71C
:08001C000B6A0B86FF0E1200B7
:100024000B820BAE1CEF00F00368026801680068E5
:080034000A360232FF0E120031
:10003C000B800BAE2AEF00F0026A0AAEFF0E026EC6
:0C004C00016E006E0A360232FF0E120038
:0E005800026A016A006A086A036A000E12005A
:100066000B840BAE3EEF00F0010E036E026A016ACE
:0A007600006A0A360232FF0E120083
:080080000AAE029E000E120000
:1000880000016051390806E3300E605D03E3010E9C
:08009800006E01D0006A1200A5
:1000A000086A096A000E07620364D5EF00F0025087
:1000B00006180A6E075003267E0ED8A066EF00F0E1
:1000C000035ED8B0D9EF00F06AEF00F0035ED8A06D
:1000D000DDEF00F0028E068E02C00EF001C00BF0C4
:1000E00000C00DF000500402F4CF0CF001500502E6
:1000F000F4CF00F0F3CF08F00402F3500C26F450D4
:100100000822000E00220D500502F3500C26F45078
:100110000822000E002202500402F3500826F45078
:10012000002202500502016A000E0122F35000264F
:10013000F45001220D500602F3500826F45000221C
:10014000026A000E012202220B500602F350002622
:10015000F4500122000E02220E500602F350012636
:10016000F450022202BEBDEF00F008360036013620
:1001700002360306D8B4DDEF00F0D0EF00F0D880EF
:10018000800E08640030000E002201220222D8A056
:10019000D0EF00F0023201320032034AD9EF00F012
:1001A0000AAE029E000EDFEF00F0010E55DFDFEF1A
:1001B00000F0020E37DFDFEF00F0040E54DF120014
:1001C0000B6A0350D8B426EF01F002500A6E028E7B
:1001D0008E0E035E03AE2AEF01F0036C080E035C83
:1001E000D8A005EF01F0036E013602C001F0026AEB
:1001F000080E035CD8A005EF01F0036E0136016A1A
:100200000350D8A4D8900FEF01F00350D8B40FEFEB
:1002100001F0D89002320132032E09EF01F00BBC3D
:1002200001A01CEF01F0D8A01CEF01F0012AD8B406
:10023000022A02BE39EF01F00AAE3EEF01F0021EC3
:10024000011E012AD8B4022A3EEF01F0026A016AB7
:100250003EEF01F00B800BAE42EF01F0026A0AAEF6
:1002600042EF01F0FF0E026E016E0A36023242EFDB
:1002700001F0010E0C6EE2DE44EF01F0000E0C6E98
:1002800044EF01F0FF0E0C6E0150006E0250016E43
:0202900012005A
:100292000B6A0A6A096A00500402F4CF09F0F3CF2C
:1002A20008F001500502F4CF0BF0F3CF0AF0005032
:1002B2000502F3500926F4500A22E86A0B22015083
:1002C2000402F3500926F4500A22E86A0B2208C0FD
:1002D20000F009C001F00AC002F00BC003F01200E6
:1002E2000C6A0E6A0250D8A48AEF01F001C002F033
:1002F20000C001F0006A0E860250D8A48AEF01F015
:1003020001C002F0016A0E960E880250D8B49CEF2A
:1003120001F00E50035ED8A4D8A0A1EF01F0D8904E
:1003220002BEA6EF01F0003601360236032E91EF2F
:1003320001F0A1EF01F0010E0C6E8DDEA9EF01F0CC
:10034200020E0C6E8FDEA9EF01F0040E0C6E97DE2A
:02035200120097
:100354000A6A0350D8A40A800750D8A40A820A5013
:10036400D8B40DEF02F0030AD8B4C6EF01F00AB016
:10037400C1EF01F006AE0BEF02F009EF02F002AE9E
:1003840009EF02F00BEF02F00250800B0A6E029E9E
:100394000650800B069E0A18D8B4D7EF01F00A5015
:1003A400D8B409EF02F00BEF02F00750035CD8B4A5
:1003B400E1EF01F0D8A0FDEF01F003EF02F00650E9
:1003C400025CD8B4EBEF01F0D8A0FDEF01F003EF2D
:1003D40002F00550015CD8B4F5EF01F0D8A0FDEFB0
:1003E40001F003EF02F00450005CD8B40DEF02F00A
:1003F400D8B003EF02F00A52D8B40BEF02F009EFC1
:1004040002F00A52D8B409EF02F00BEF02F0D880E0
:0E0414001200D8901200D880D8841200120076
:100422000450000A12E10550000A0FE10650000ACA
:100432000CE10750000A09E1FF0E006EFF0E016E8B
:100442007F0E026EFF0E036EA4D0086A096A07507F
:10045200D8B4BCEF02F00350D8B4C0EF02F002509F
:1004620006180A6E028E068E0E6A02C008F001C0DD
:100472000CF000C00DF004500D5E0550D8A0053CF4
:100482000C5E0650D8A0063C085E086A0C6A0D6A2B
:10049200D8A053EF02F0D890023201320032083273
:1004A200010E0E6E0750035ED8A060EF02F07E0EC2
:1004B2000E240326D8B0C4EF02F066EF02F07E0EDF
:1004C2000E240326D8A0C8EF02F0180E0B6E0D36CC
:1004D2000C3608360036013602360E360450005EFF
:1004E2000550D8A0053C015E0650D8A0063C025E2D
:1004F20006340E120EA081EF02F00D808CEF02F096
:10050200045000260550D8B0053C01260650D8B04C
:10051200062802260D900B2E68EF02F0B2EF02F0D1
:10052200D8900036013602360E360450005E055071
:10053200D8A0053C015E0650D8A0063C025E0634F7
:100542000E10010B0D26D8B00C2AD8B4082AD8A454
:10055200B2EF02F008320C320D32032AD8B4C4EFE3
:1005620002F00AAE089E0850026E0C50016E0D5049
:10057200006ECAEF02F0010E50DDCAEF02F0020E69
:100582006ADDCAEF02F0040E4CDDCAEF02F0080E7B
:0405920069DD12000D
:100596000B1E0A1E091E081E082AD8B4092AD8B43A
:0805A6000A2AD8B40B2A120046
:1005AE000450085E0550D8A0053C095E0650D8A040
:1005BE00063C0A5E0750D8A0073C0B5E0336070EBA
:1005CE000C6E0334083609360A360B36045003A077
:1005DE000ED0085E0550D8A0053C095E0650D8A086
:1005EE00063C0A5E0750D8A0073C0B5E0DD00826CD
:1005FE000550D8B0053C09260650D8B0063C0A2650
:10060E000750D8B0073C0B2603360C2EDAD702342F
:10061E00083609360A360B36045003A00ED0085E93
:10062E000550D8A0053C095E0650D8A0063C0A5ECF
:10063E000750D8A0073C0B5E0DD008260550D8B049
:10064E00053C09260650D8B0063C0A260750D8B0FD
:10065E00073C0B260236070E0C6E0234083609369E
:10066E000A360B36045002A00ED0085E0550D8A0F4
:10067E00053C095E0650D8A0063C0A5E0750D8A07D
:10068E00073C0B5E0DD008260550D8B0053C092658
:10069E000650D8B0063C0A260750D8B0073C0B26A9
:1006AE0002360C2EDAD70134083609360A360B36E6
:1006BE00045002A00ED0085E0550D8A0053C095E7D
:1006CE000650D8A0063C0A5E0750D8A0073C0B5E29
:1006DE000DD008260550D8B0053C09260650D8B0D6
:1006EE00063C0A260750D8B0073C0B260136070EEB
:1006FE000C6E0134083609360A360B36045001A04A
:10070E000ED0085E0550D8A0053C095E0650D8A054
:10071E00063C0A5E0750D8A0073C0B5E0DD008269B
:10072E000550D8B0053C09260650D8B0063C0A261E
:10073E000750D8B0073C0B2601360C2EDAD7003402
:10074E00083609360A360B36045001A00ED0085E64
:10075E000550D8A0053C095E0650D8A0063C0A5E9E
:10076E000750D8A0073C0B5E0DD008260550D8B018
:10077E00053C09260650D8B0063C0A260750D8B0CC
:10078E00073C0B260036070E0C6E00340836093671
:10079E000A360B36045000A00ED0085E0550D8A0C5
:1007AE00053C095E0650D8A0063C0A5E0750D8A04C
:1007BE00073C0B5E0DD008260550D8B0053C092627
:1007CE000650D8B0063C0A260750D8B0073C0B2678
:1007DE0000360C2EDAD700B00ED004500826055085
:1007EE00D8B0053C09260650D8B0063C0A2607505C
:0807FE00D8B0073C0B261200E5
:10080600220E0C6E086A096A0A6A0B6A0C06D8B4CC
:100816001FD0D8900B320A32093208320332023224
:1008260001320032D8A0F2D70C06D8B409D0045051
:1008360008260550092206500A2207500B22EAD73D
:10084600045008260550092206500A2207500B229A
:0208560012008E
:1008580061C004F062C005F063C006F064C007F030
:1008680065C000F066C001F067C002F068C003F020
:100878006DDD010ED8B0000E006E005208E065C0B4
:1008880061F066C062F067C063F068C064F065C07C
:1008980004F066C005F067C006F068C007F061C0E4
:1008A80000F062C001F063C002F064C003F0B5DD7F
:1008B80069C004F06AC005F06BC006F06CC007F0B0
:0808C80050EC00F079DC120095
:1008D000400E006E1F0E016E000E026E036E1200BF
:1008E0005CC0E9FF5DC0EAFFEECF5EF0000E5F6E18
:1008F000000E5F6E000E5F1802E1200E5E1807E02A
:10090000000E5F1802E1090E5E1801E003D05C4A98
:100910005D2AE6D70001616B626B636B646B000E4E
:100920005F1802E12D0E5E1805E1634B642B5C4AF3
:100930005D2A08D0000E5F1802E12B0E5E1802E15E
:100940005C4A5D2A5CC0E9FF5DC0EAFFEECF5EF065
:10095000000E5F6E000E5F6E5EC060F044EC00F053
:10096000005218E061C000F062C001F00A0E046E8F
:10097000000E056E8EDC300E5E5C026E000E5F585F
:10098000036E02500024616F03500120626F5C4AC5
:100990005D2AD8D76351641108E061510008006EE8
:1009A00062C001F0000E015604D061C000F062C0C8
:0409B00001F0120040
:1009B4000B6A0C6A0A6A0350D8B40FEF05F00A9E5A
:1009C400028E860E035E03BEEDEF04F0D8B4EDEFA5
:1009D40004F012EF05F0036C080E035CD8A0FBEFE3
:1009E40004F0036E0236026A0350D8A4D89004EFD0
:1009F40005F00350D8B404EF05F0D8900232032E6A
:100A0400FFEF04F00BBC02A00FEF05F0D8A00FEF2E
:100A140005F0022AD8B419EF05F0016A1FEF05F0BA
:100A24000B800BAE23EF05F0016A23EF05F0010EF6
:100A34000C6E1EEC00F025EF05F0000E0C6E25EF99
:0C0A440005F0FF0E0C6E0250006E120058
:100A500000C008F00150006E016A026A036A0B6A66
:100A60000C6A016A026A036A960E036E0A6A00AE95
:100A700040EF05F0081E001E082AD8B4002A0A8E8E
:100A800000C001F008C000F0086A026A2ADC120007
:100A90005C065C065CC001F05C060150000803E2E5
:100AA00000000000F7D70000000000000000000078
:020AB000120032
:100AB2000450000A12E10550000A0FE10650000A34
:100AC2000CE10750000A09E1FF0E006EFF0E016EF5
:100AD200FF0E026E7F0E036E97D00C6A07BE0C2AC1
:100AE2000D6A0B6A0A6A096A086A03500210011049
:100AF2000010D8B484D0035007180E6E0EBE0D1E1F
:100B020007AE0BD0041E051E061E071E042AD8B40B
:100B1200052AD8B4062AD8B4072A03AE0BD0001E81
:100B2200011E021E031E002AD8B4012AD8B4022ACA
:100B3200D8B4032A035007100E6E0EBE1CD036DD49
:100B42000CBE36D00DAE5BD0001E011E021E031E6F
:100B5200002AD8B4012AD8B4022AD8B4032A081E1B
:100B6200091E0A1E0B1E082AD8B4092AD8B40A2A5A
:100B7200D8B40B2A44D007AE15D003BE0DD0035013
:100B82000B6E02500A6E0150096E0050086E036A25
:100B9200026A016A006AD6D7036A026A016A006AB7
:100BA200002A000C031E021E011E001E0C8EC7D757
:100BB200082AD8B4092AD8B40A2AD8B40B2A04506D
:100BC200085CD8A4BFD70550095CD8A4BBD706508F
:100BD2000A5CD8A4B7D707500B5CD8A4B3D70B6A6A
:100BE2000A6A096A086A002AD8B4012AD8B4022A11
:100BF200D8B4032A03AEA6D70E6A0E88FF0C0E6A7B
:0A0C02000CA001D0C7DC000F1200A7
:100C0C004D6A4E6A4F6A506A516A526A536A4C5026
:100C1C004B5C016E026A000E025A800E4E18006E7A
:100C2C00800E0218005C02E101504D5C6AE24D50EE
:100C3C004924E96E4E504A20EA6EEE50030A5EE1FA
:100C4C00010E4D24006E000E4E20016E0050492402
:100C5C00E96E01504A20EA6EEE50020A4FE1050E91
:100C6C004D24006E000E4E20016E00504924E96E9A
:100C7C0001504A20EA6EEE50030A40E1060E4D2464
:100C8C00006E000E4E20016E00504924E96E01509A
:100C9C004A20EA6EEE50020A31E1020E4D24006E3B
:100CAC00000E4E20016E00504924E96E01504A207E
:100CBC00EA6EEECF4FF0030E4D24006E000E4E2068
:100CCC00016E00504924E96E01504A20EA6EEECFC5
:100CDC0050F0040E4D24006E000E4E20016E00509C
:100CEC004924E96E01504A20EA6EEECF51F0526A67
:100CFC004F0E5C6E000E5D6EEDDD03D04D4A4E2A3C
:040D0C0086D7120074
:0E0D1000ACB202D00000FCD749C0ADFF12000B
:100D1E000F0EC16E070EB46E800EF16E896A8B6A6D
:100D2E008C6A8D6A030E926E946A956A966A806AD0
:0C0D3E00826A836A846A030E896E1200C8
:100D4A00496A4A6A2A0E956E8C800D0E0D6E0D2E1A
:100D5A00FED78C9083B201D0FDD783A203D0494A33
:100D6A004A2AFBD749C000F04AC001F06CDE00C035
:100D7A0061F001C062F002C063F003C064F0000ECB
:100D8A000001656F000E666F7A0E676F890E686FD5
:100D9A00000E696F000E6A6F7F0E6B6F860E6C6FA6
:040DAA0056DD120000
:100DAE0049C01EF04AC01FF04BC000F0010E026E8B
:100DBE00005004E002360290FF0FFBD702C019F07C
:100DCE00021C166E4CC001F0010E006E015004E0C4
:100DDE0000360090FF0FFBD700C015F0001E00C0BC
:100DEE0018F0120E4924E96E000E4A20EA6E0250E7
:100DFE00EF120050EF16176A5152D8A4171E120E9A
:100E0E00E95E1750000A03E01850EF1602D0155095
:100E1E00EF1257DDE80E046E030E056E000E066E21
:100E2E00076EEADC00C052F001C053F002C054F06D
:100E3E0003C055F04DC000F04EC001F04FC002F09F
:100E4E0050C003F0003600900136023603360036ED
:100E5E0000900136023603360A0E046E000E056E41
:100E6E00066E076EC9DC00C056F001C057F002C016
:100E7E0058F003C059F000C004F001C005F002C0E4
:100E8E0006F003C007F052C000F053C001F054C08A
:100E9E0002F055C003F006DE00C05AF001C05BF050
:100EAE0001C004F0056A0450051003E0020E006E46
:100EBE0050D05AC038F056C004F057C005F058C094
:100ECE0006F059C007F052C000F053C001F054C0F4
:100EDE0002F055C003F0E6DD08C000F009C001F0D5
:100EEE000AC002F00BC003F000C052F001C053F074
:100EFE0002C054F003C055F056C005F057C006F0BE
:100F0E0058C007F059C008F00832073206320532D1
:100F1E00089E08BC088E800E0818046E800E0318FA
:100F2E00045C08E10250075C05E10150065C02E139
:100F3E000050055CD8A0382A38C001F00132019E5D
:100F4E0001C037F0070E015C03E2010E006E01D006
:040F5E00006A120013
:100F620049C0E1FF4AC0E2FFE66A010E4C6E4B6ADD
:100F720036901EC0E9FF1FC0EAFF1750000A13E1B6
:100F82001950EF14016E0150000A0CE036A009D08E
:100F920049C0E1FF4AC0E2FFFF0EE66E4BC000F01F
:100FA20058D0EED712D01950EF14016E0150000A3A
:100FB2000CE136A009D049C0E1FF4AC0E2FFFF0EB2
:100FC200E66E4BC000F045D0EED737C05CF05FDD77
:100FD20038C05CF05CDD4C5215E01950EF14016E24
:100FE2000150000A02E04C504B124C364C90020E5B
:100FF200385C5C6E4CDD0000000000000000000068
:101002000000E9D71750000A10E11950EF14016EE1
:101012000150000A010ED8A4000E006E49C0E1FF83
:101022004AC0E2FF00C0E6FF0FD01950EF14016E74
:101032000150000A000ED8A4010E006E49C0E1FF63
:101042004AC0E2FF00C0E6FF17504B18006E00C016
:041052004BF012004D
:10105600496A4A6A2A0E956E8C880D0E0D6E0D2E03
:10106600FED78C988350000A01E1FCD783AA03D0EF
:10107600494A4A2AFBD749C000F04AC001F0E5DCDC
:1010860000C061F001C062F002C063F003C064F00A
:10109600000E0001656F000E666F7A0E676F890E8F
:1010A600686F000E696F000E6A6F7F0E6B6F860E9B
:0810B6006C6F2CEC04F0120039
:1010BE00496A4A6A2A0E956E8C840D0E0D6E0D2E9F
:1010CE00FED78C948350000A01E1FCD783A603D08F
:1010DE00494A4A2AFBD749C000F04AC001F0B1DCA8
:1010EE0000C061F001C062F002C063F003C064F0A2
:1010FE00000E0001656F000E666F7A0E676F890E27
:10110E00686F000E696F000E6A6F7F0E6B6F860E32
:08111E006C6F2CEC04F01200D0
:10112600800E4C18006E800E4A18005C02E1495091
:101136004B5C04E24BC049F04CC04AF04DC000F095
:101146004EC001F082DC00C053F001C054F002C072
:1011560055F003C056F049C000F04AC001F075DCF6
:1011660000C04FF001C050F002C051F003C052F071
:101176004BC000F04CC001F068DC00C004F001C0B8
:1011860005F002C006F003C007F04FC000F050C0E3
:1011960001F051C002F052C003F011EC02F053C04E
:1011A60004F054C005F055C006F056C007F050ECE8
:0811B60000F0DAEC04F0120075
:0411BE00AFDD12008F
:1011C200100E2A6E0D0E2B6E490E2C6E000E2D6E19
:1011D200FF0E266EFF0E276E000E286E000E296E81
:1011E200FF0E226EFF0E236E000E246E000E256E81
:1011F200FF0E326EFF0E336E000E346E000E356E31
:10120200AC8A900EAB6E948E949C9EAA03D0AECF05
:0612120000F0FBD7120002
:101218003B6A3C6A3D6A3E6A3F6A406A416A426A82
:10122800436A446A456A466A476A486A090E966E7E
:10123800090E8D6E840E496E0F0E4A6E4B6A010EB2
:101248004C6E800E4D6E250E4E6E000E4F6E506E1B
:10125800516AA9DD0050000AD8A482D03AC049F0EA
:10126800000E4A6E7ADE00C03BF03AC049F0000E2C
:101278004A6E73DE00C03CF03AC049F0000E4A6E78
:101288006CDE00C03DF03AC049F0000E4A6E65DEE3
:1012980000C03EF03AC049F0000E4A6E5EDE00C063
:1012A8003FF03AC049F0000E4A6E57DE00C040F0E9
:1012B8003AC049F0000E4A6E50DE00C041F03AC014
:1012C80049F0000E4A6E49DE00C042F03AC049F0CB
:1012D800000E4A6E42DE00C043F03AC049F0000EEC
:1012E8004A6E3BDE00C044F03AC049F0000E4A6E38
:1012F80034DE00C045F03AC049F0000E4A6E2DDEDB
:1013080000C046F03AC049F0000E4A6E26DE00C022
:1013180047F03B0E496E000E4A6E0C0E4B6E070EE0
:101328004C6E70DC00C047F001C048F03950010A2B
:1013380016E147C049F048C04AF0680E4B6E010EEE
:101348004C6EFF0E4D6E000E4E6EE9DE00C049F089
:10135800DBDC0D0E496ED8DC0A0E496ED5DC03D0F5
:08136800006A016A00D01200C6
:10137000ECDC39C0E1FF3AC0E2FF00C0E6FF01C08B
:10138000E6FF69DE3DC0E1FF3EC0E2FF00C0E6FFD0
:1013900001C0E6FF94DE3BC0E1FF3CC0E2FF00C0BD
:0C13A000E6FF01C0E6FF006A016A1200CF
:1013AC000F0EC112070EB41204DF2A0E956E936A4B
:1013BC008A6A8C6AB886B06ACF0EAF6EAC84FBDEDC
:1013CC00020E0B6E040E0C6EBA0E0D6E0D2EFED7A9
:1013DC000C2EFCD70B2EFAD700001C6A1D6A200EAF
:1013EC00396E000E3A6E300E3B6E000E3C6E2E0EB9
:1013FC003D6E000E3E6EB6DF00C01AF001C01BF051
:10140C0020C049F07FDC30C049F07CDC2EC049F0B4
:10141C0079DC0D0E496E76DC0A0E496E73DC010E1A
:10142C00396EF4DE0B0E0B6E260E0C6E5D0E0D6E11
:10143C000D2EFED70C2EFCD70B2EFAD70000000079
:10144C00000E1D1802E1000E1C1807E1FF0E816E44
:10145C00010E1C6E000E1D6E03D01C6A1D6A816A83
:04146C00BED7FFD711
:020000040030CA
:0E000000210C3F1EFF8381FF0FC00FE00F4059
:00000001FF
