:100000002DEF05F00000000000EF00F00000000000
:0A0010000000000000000000F3D71C
:10001C000134083609360450085E0550D8A0053C5A
:10002C00095E003601360F0E0C6E013408360936A7
:10003C00045000A006D0085E0550D8A0053C095E0F
:10004C0005D008260550D8B0053C092600360136E7
:10005C000C2EEBD700B006D0045008260550D8B0B3
:08006C00053C0926000012000A
:100074000B6A0A6A096A00500402F4CF09F0F3CF4C
:1000840008F001500502F4CF0BF0F3CF0AF0005052
:100094000502F3500926F4500A22E86A0B220150A3
:1000A4000402F3500926F4500A22E86A0B2208C01D
:1000B40000F009C001F00AC002F00BC003F0120006
:1000C4000450000A08E10550000A05E1FF0E006E25
:1000D4007F0E016E57D00D6A096A086A015000103C
:1000E400D8B4000C015005180A6E0ABE0D1E0B6A26
:1000F40005AE05D0041E051E042AD8B4052A01AE97
:1001040005D0001E011E002AD8B4012A0150051092
:100114000A6E0ABE10D080DF0BB020D00DAE000CEA
:10012400001E011E002AD8B4012A081E091E082A2E
:10013400D8B4092A000C05AE0DD001BE07D0015079
:10014400096E0050086E016A006AE8D7016A006A05
:10015400002A000C011E001E0B2ADDD7082AD8B481
:10016400092A0450085CD8A4D9D70550095CD8A43E
:10017400D5D7096A086A002AD8B4012A01AECED7B5
:060184000000FF0C120058
:10018A000450085E0550D8A0053C095E0650D8A068
:10019A00063C0A5E0750D8A0073C0B5E0336070EE2
:1001AA000C6E0334083609360A360B36045003A09F
:1001BA000ED0085E0550D8A0053C095E0650D8A0AE
:1001CA00063C0A5E0750D8A0073C0B5E0DD00826F5
:1001DA000550D8B0053C09260650D8B0063C0A2678
:1001EA000750D8B0073C0B2603360C2EDAD7023458
:1001FA00083609360A360B36045003A00ED0085EBC
:10020A000550D8A0053C095E0650D8A0063C0A5EF7
:10021A000750D8A0073C0B5E0DD008260550D8B071
:10022A00053C09260650D8B0063C0A260750D8B025
:10023A00073C0B260236070E0C6E023408360936C6
:10024A000A360B36045002A00ED0085E0550D8A01C
:10025A00053C095E0650D8A0063C0A5E0750D8A0A5
:10026A00073C0B5E0DD008260550D8B0053C092680
:10027A000650D8B0063C0A260750D8B0073C0B26D1
:10028A0002360C2EDAD70134083609360A360B360E
:10029A00045002A00ED0085E0550D8A0053C095EA5
:1002AA000650D8A0063C0A5E0750D8A0073C0B5E51
:1002BA000DD008260550D8B0053C09260650D8B0FE
:1002CA00063C0A260750D8B0073C0B260136070E13
:1002DA000C6E0134083609360A360B36045001A072
:1002EA000ED0085E0550D8A0053C095E0650D8A07D
:1002FA00063C0A5E0750D8A0073C0B5E0DD00826C4
:10030A000550D8B0053C09260650D8B0063C0A2646
:10031A000750D8B0073C0B2601360C2EDAD700342A
:10032A00083609360A360B36045001A00ED0085E8C
:10033A000550D8A0053C095E0650D8A0063C0A5EC6
:10034A000750D8A0073C0B5E0DD008260550D8B040
:10035A00053C09260650D8B0063C0A260750D8B0F4
:10036A00073C0B260036070E0C6E00340836093699
:10037A000A360B36045000A00ED0085E0550D8A0ED
:10038A00053C095E0650D8A0063C0A5E0750D8A074
:10039A00073C0B5E0DD008260550D8B0053C09264F
:1003AA000650D8B0063C0A260750D8B0073C0B26A0
:1003BA0000360C2EDAD700B00ED0045008260550AD
:1003CA00D8B0053C09260650D8B0063C0A26075084
:0803DA00D8B0073C0B2612000D
:1003E2000B1E0A1E091E081E082AD8B4092AD8B4F0
:0803F2000A2AD8B40B2A1200FC
:1003FA00800E5518006E800E5318005C02E15250B0
:10040A00545C04E254C052F055C053F056C000F098
:10041A0057C001F052C004F053C005F026DE54C0A4
:0A042A0004F055C005F049DE120091
:100434000F0EC16E070EB46E800EF16E896A8B6A60
:100444008C6A8D6A030E926E946A956A966A806AC3
:0C045400826A836A846A030E896E1200BB
:10046000506A516A2A0E956E8C800D0E0D6E0D2EFF
:10047000FED78C9083B201D0FDD7506A516A83A217
:1004800003D0504A512AFBD750C052F051C053F00C
:10049000D00E546E070E556EFF0E566E000E576E40
:0404A000ACDF1200BB
:1004A400506A516A2A0E956E8C880D0E0D6E0D2EB3
:1004B400FED78C988350000A01E1FCD7506A516A38
:1004C40083AA03D0504A512AFBD750C052F051C0DE
:1004D40053F0D00E546E070E556EFF0E566E000E7E
:0604E400576E89DF1200D3
:1004EA00506A516A2A0E956E8C840D0E0D6E0D2E71
:1004FA00FED78C948350000A01E1FCD7506A516AF6
:10050A0083A603D0504A512AFBD750C052F051C09B
:10051A0053F0D00E546E070E556EFF0E566E000E37
:06052A00576E66DF1200AF
:10053000400E006E1F0E016E000E026E036E120062
:100540000450000A12E10550000A0FE10650000AAB
:100550000CE10750000A09E1FF0E006EFF0E016E6C
:10056000FF0E026E7F0E036E97D00C6A07BE0C2A38
:100570000D6A0B6A0A6A096A086A035002100110C0
:100580000010D8B484D0035007180E6E0EBE0D1E96
:1005900007AE0BD0041E051E061E071E042AD8B483
:1005A000052AD8B4062AD8B4072A03AE0BD0001EF9
:1005B000011E021E031E002AD8B4012AD8B4022A42
:1005C000D8B4032A035007100E6E0EBE1CD0DDDD1A
:1005D0000CBE36D00DAE5BD0001E011E021E031EE7
:1005E000002AD8B4012AD8B4022AD8B4032A081E93
:1005F000091E0A1E0B1E082AD8B4092AD8B40A2AD2
:10060000D8B40B2A44D007AE15D003BE0DD003508A
:100610000B6E02500A6E0150096E0050086E036A9C
:10062000026A016A006AD6D7036A026A016A006A2E
:10063000002A000C031E021E011E001E0C8EC7D7CE
:10064000082AD8B4092AD8B40A2AD8B40B2A0450E4
:10065000085CD8A4BFD70550095CD8A4BBD7065006
:100660000A5CD8A4B7D707500B5CD8A4B3D70B6AE1
:100670000A6A096A086A002AD8B4012AD8B4022A88
:10068000D8B4032A03AEA6D70E6A0E88FF0C0E6AF2
:0A0690000CA001D0A6DE000F12003E
:10069A005006500650C001F050060150000803E20F
:1006AA0000000000F7D70000000000000000000072
:0206BA0012002C
:1006BC00220E0C6E086A096A0A6A0B6A0C06D8B418
:1006CC001FD0D8900B320A32093208320332023270
:1006DC0001320032D8A0F2D70C06D8B409D004509D
:1006EC0008260550092206500A2207500B22EAD789
:1006FC00045008260550092206500A2207500B22E6
:02070C001200D9
:10070E00100E276E0A0E286E3D0E296E000E2A6EF2
:10071E00FF0E2C6EFF0E2D6E000E2E6E000E2F6E27
:10072E00FF0E346EFF0E356E000E366E000E376EF7
:10073E00FF0E306EFF0E316E000E326E000E336EF7
:10074E00AC8A900EAB6E948E949C9EAA03D0AECFC4
:06075E0000F0FBD71200C1
:0407640067DE12003A
:100768003DC01CF03EC01DF03FC000F0010E026EFF
:10077800005004E002360290FF0FFBD702C039F0A8
:10078800021C3C6E40C001F0010E006E015004E0F6
:1007980000360090FF0FFBD700C03BF0001E00C0E2
:1007A8002BF0120E3D24E96E000E3E20EA6E025038
:1007B800EF120050EF161B6A4552D8A41B1E120EEA
:1007C800E95E1B50000A03E02B50EF1602D03B50A5
:1007D800EF12AADEE80E046E030E056E000E066E1A
:1007E800076E68DF00C046F001C047F002C048F05D
:1007F80003C049F041C000F042C001F043C002F01C
:1008080044C003F000360090013602360336003645
:1008180000900136023603360A0E046E000E056E8D
:10082800066E076E47DF00C04AF001C04BF002C0F9
:100838004CF003C04DF000C004F001C005F002C048
:1008480006F003C007F046C000F047C001F048C0FA
:1008580002F049C003F070DE00C04EF001C04FF056
:1008680001C004F0056A0450051003E0020E006E92
:1008780050D04EC03AF04AC004F04BC005F04CC00E
:1008880006F04DC007F046C000F047C001F048C070
:1008980002F049C003F050DE08C000F009C001F0C2
:1008A8000AC002F00BC003F000C046F001C047F0D8
:1008B80002C048F003C049F04AC005F04BC006F03A
:1008C8004CC007F04DC008F0083207320632053236
:1008D800089E08BC088E800E0818046E800E031847
:1008E800045C08E10250075C05E10150065C02E186
:1008F8000050055CD8A03A2A3AC001F00132019EA6
:1009080001C038F0070E015C03E2010E006E01D051
:04091800006A12005F
:10091C003DC0E1FF3EC0E2FFE66A010E406E3F6A59
:10092C0024901CC0E9FF1DC0EAFF1B50000A13E114
:10093C003950EF14016E0150000A0CE024A009D0CC
:10094C003DC0E1FF3EC0E2FFFF0EE66E3FC000F08F
:10095C0058D0EED712D03950EF14016E0150000A66
:10096C000CE124A009D03DC0E1FF3EC0E2FFFF0E28
:10097C00E66E3FC000F045D0EED738C050F087DEB1
:10098C003AC050F084DE405215E03950EF14016E3D
:10099C000150000A02E040503F1240364090020ED7
:1009AC003A5C506E74DE0000000000000000000095
:1009BC000000E9D71B50000A10E13950EF14016E0A
:1009CC000150000A010ED8A4000E006E3DC0E1FFDC
:1009DC003EC0E2FF00C0E6FF0FD03950EF14016EAD
:1009EC000150000A000ED8A4010E006E3DC0E1FFBC
:1009FC003EC0E2FF00C0E6FF1B503F18006E00C077
:040A0C003FF01200A5
:0E0A1000ACB202D00000FCD73DC0ADFF12001A
:100A1E0020DD3DC0E1FF3EC0E2FF00C0E6FF01C0A9
:100A2E00E6FF39DD41C0E1FF42C0E2FF00C0E6FF54
:100A3E0001C0E6FF53DD3FC0E1FF40C0E2FF00C052
:0C0A4E00E6FF01C0E6FF006A016A12002A
:100A5A000F0EC112070EB41280DE2A0E956E936A2B
:100A6A008A6A8C6AB886B06A100EAF6EAC844ADEA7
:100A7A00020E0B6E040E0C6EBA0E0D6E0D2EFED704
:100A8A000C2EFCD70B2EFAD70000256A266A840E94
:100A9A003D6E0F0E3E6E3F6A010E406E800E416E35
:100AAA00250E426E000E436E446E456A58DE00C043
:100ABA0022F0000E236E200E3D6E000E3E6E170EC3
:100ACA003F6E000E406E150E416E000E426EA2DFA2
:100ADA0000C01EF001C01FF020C03DF094DF17C017
:100AEA003DF091DF15C03DF08EDF3D6A8CDF0D0EC3
:100AFA003D6E89DF0A0E3D6E86DF190E3D6E000ED1
:100B0A003E6E07DF0050020A01E0F7D7190E3D6E6C
:100B1A00000E3E6EFEDE00C03DF075DF190E3D6E22
:100B2A00000E3E6EF6DE00C03DF06DDF190E3D6E22
:100B3A00000E3E6EEEDE00C03DF065DFFF0E3D6E3C
:100B4A0062DF3D6A60DF0D0E3D6E5DDF0A0E3D6EAF
:100B5A005ADF330E0B6EBB0E0C6EDF0E0D6E0D2EB2
:100B6A00FED70C2EFCD70B2EFAD700000000000E81
:100B7A00261802E1000E251807E1FF0E816E010E0C
:100B8A00256E000E266E03D0256A266A816A93D7DF
:020B9A00FFD783
:020000040030CA
:0E000000210C3F1EFF8381FF0FC00FE00F4059
:00000001FF
