:100000004EEF01F00000000000EF00F000000000E3
:0A0010000000000000000000F3D71C
:10001C000134083609360450085E0550D8A0053C5A
:10002C00095E003601360F0E0C6E013408360936A7
:10003C00045000A006D0085E0550D8A0053C095E0F
:10004C0005D008260550D8B0053C092600360136E7
:10005C000C2EEBD700B006D0045008260550D8B0B3
:08006C00053C0926000012000A
:100074000B6A0A6A096A00500402F4CF09F0F3CF4C
:1000840008F001500502F4CF0BF0F3CF0AF0005052
:100094000502F3500926F4500A22E86A0B220150A3
:1000A4000402F3500926F4500A22E86A0B2208C01D
:1000B40000F009C001F00AC002F00BC003F0120006
:1000C4000450000A08E10550000A05E1FF0E006E25
:1000D4007F0E016E57D00D6A096A086A015000103C
:1000E400D8B4000C015005180A6E0ABE0D1E0B6A26
:1000F40005AE05D0041E051E042AD8B4052A01AE97
:1001040005D0001E011E002AD8B4012A0150051092
:100114000A6E0ABE10D080DF0BB020D00DAE000CEA
:10012400001E011E002AD8B4012A081E091E082A2E
:10013400D8B4092A000C05AE0DD001BE07D0015079
:10014400096E0050086E016A006AE8D7016A006A05
:10015400002A000C011E001E0B2ADDD7082AD8B481
:10016400092A0450085CD8A4D9D70550095CD8A43E
:10017400D5D7096A086A002AD8B4012A01AECED7B5
:060184000000FF0C120058
:10018A000F0EC16E070EB46E800EF16E896A8B6A0D
:10019A008C6A8D6A030E926E946A956A966A806A70
:0C01AA00826A836A846A030E896E120068
:1001B600336A346A83820D0E0D6E0D2EFED783923E
:1001C60083B003D0336A346AFBD783A003D0334AA3
:1001D600342AFBD7800E030A006E800E3418005CAA
:1001E60002E13350E80804E2E80E336E030E346E83
:1001F600FF0E006E000E016E33C004F034C005F031
:1002060036DFE80E046E030E056E59DF00C033F0CC
:0602160001C034F01200EB
:04021C00B6DF120037
:10022000760E296E020E2A6E2D0E2B6E000E2C6E8F
:10023000FF0E256EFF0E266E000E276E000E286E36
:10024000FF0E1D6EFF0E1E6E000E1F6E000E206E46
:10025000FF0E216EFF0E226E000E236E000E246E26
:10026000AC8A900EAB6E948E949C9EAA03D0AECFB7
:0602700000F0FBD71200B4
:0E027600ACB202D00000FCD72DC0ADFF1200CC
:1002840098DF2DC0E1FF2EC0E2FF00C0E6FF01C0F1
:08029400E6FF006A016A120096
:10029C000F0EC112070EB412BBDF2A0E956E936AB5
:1002AC008A6A8C6AB886B06ACF0EAF6EAC84B2DF45
:1002BC00020E0B6E040E0C6EBA0E0D6E0D2EFED7CA
:1002CC000C2EFCD70B2EFAD70000150E2D6E000E3F
:1002DC002E6E1B0E2F6E000E306E190E316E000E30
:1002EC00326ECADF00C017F001C018F02D6ABDDFF6
:1002FC000B0E0B6E260E0C6E5D0E0D6E0D2EFED7BC
:10030C000C2EFCD70B2EFAD7000000008152010EE8
:0A031C00D8A4000E8A6ED9D7FFD7CF
:020000040030CA
:0E000000210E3F1EFF8381FF0FC00FE00F4057
:00000001FF
