:10000000B6EF0BF00000000000EF00F00000000071
:0A0010000000000000000000F3D71C
:10001C000450085E0550D8A0053C095E0650D8A0D7
:10002C00063C0A5E0750D8A0073C0B5E0336070E51
:10003C000C6E0334083609360A360B36045003A00E
:10004C000ED0085E0550D8A0053C095E0650D8A01D
:10005C00063C0A5E0750D8A0073C0B5E0DD0082664
:10006C000550D8B0053C09260650D8B0063C0A26E7
:10007C000750D8B0073C0B2603360C2EDAD70234C7
:10008C00083609360A360B36045003A00ED0085E2B
:10009C000550D8A0053C095E0650D8A0063C0A5E67
:1000AC000750D8A0073C0B5E0DD008260550D8B0E1
:1000BC00053C09260650D8B0063C0A260750D8B095
:1000CC00073C0B260236070E0C6E02340836093636
:1000DC000A360B36045002A00ED0085E0550D8A08C
:1000EC00053C095E0650D8A0063C0A5E0750D8A015
:1000FC00073C0B5E0DD008260550D8B0053C0926F0
:10010C000650D8B0063C0A260750D8B0073C0B2640
:10011C0002360C2EDAD70134083609360A360B367D
:10012C00045002A00ED0085E0550D8A0053C095E14
:10013C000650D8A0063C0A5E0750D8A0073C0B5EC0
:10014C000DD008260550D8B0053C09260650D8B06D
:10015C00063C0A260750D8B0073C0B260136070E82
:10016C000C6E0134083609360A360B36045001A0E1
:10017C000ED0085E0550D8A0053C095E0650D8A0EC
:10018C00063C0A5E0750D8A0073C0B5E0DD0082633
:10019C000550D8B0053C09260650D8B0063C0A26B6
:1001AC000750D8B0073C0B2601360C2EDAD700349A
:1001BC00083609360A360B36045001A00ED0085EFC
:1001CC000550D8A0053C095E0650D8A0063C0A5E36
:1001DC000750D8A0073C0B5E0DD008260550D8B0B0
:1001EC00053C09260650D8B0063C0A260750D8B064
:1001FC00073C0B260036070E0C6E00340836093609
:10020C000A360B36045000A00ED0085E0550D8A05C
:10021C00053C095E0650D8A0063C0A5E0750D8A0E3
:10022C00073C0B5E0DD008260550D8B0053C0926BE
:10023C000650D8B0063C0A260750D8B0073C0B260F
:10024C0000360C2EDAD700B00ED00450082605501C
:10025C00D8B0053C09260650D8B0063C0A260750F3
:08026C00D8B0073C0B2612007C
:100274000B1E0A1E091E081E082AD8B4092AD8B45F
:080284000A2AD8B40B2A12006B
:10028C0000018007800780C001F080070150000842
:10029C0003E200000000F7D700000000000000009F
:0402AC00000012003C
:0802B0000AAE029E000E1200CE
:0802B8000B6A0B86FF0E120019
:0E02C000026A016A006A086A036A000E1200F0
:1002CE000B820BAE71EF01F00368026801680068E3
:0802DE000A360232FF0E120085
:1002E6000B840BAE7EEF01F0010E036E026A016A0B
:0A02F600006A0A360232FF0E120001
:100300000450000A12E10550000A0FE10650000AED
:100310000CE10750000A09E1FF0E006EFF0E016EAE
:10032000FF0E026E7F0E036E97D00C6A07BE0C2A7A
:100330000D6A0B6A0A6A096A086A03500210011002
:100340000010D8B484D0035007180E6E0EBE0D1ED8
:1003500007AE0BD0041E051E061E071E042AD8B4C5
:10036000052AD8B4062AD8B4072A03AE0BD0001E3B
:10037000011E021E031E002AD8B4012AD8B4022A84
:10038000D8B4032A035007100E6E0EBE1CD046DEF2
:100390000CBE36D00DAE5BD0001E011E021E031E29
:1003A000002AD8B4012AD8B4022AD8B4032A081ED5
:1003B000091E0A1E0B1E082AD8B4092AD8B40A2A14
:1003C000D8B40B2A44D007AE15D003BE0DD00350CD
:1003D0000B6E02500A6E0150096E0050086E036ADF
:1003E000026A016A006AD6D7036A026A016A006A71
:1003F000002A000C031E021E011E001E0C8EC7D711
:10040000082AD8B4092AD8B40A2AD8B40B2A045026
:10041000085CD8A4BFD70550095CD8A4BBD7065048
:100420000A5CD8A4B7D707500B5CD8A4B3D70B6A23
:100430000A6A096A086A002AD8B4012AD8B4022ACA
:10044000D8B4032A03AEA6D70E6A0E88FF0C0E6A34
:0A0450000CA001D00FDF000F120016
:10045A00220E0C6E086A096A0A6A0B6A0C06D8B47C
:10046A001FD0D8900B320A320932083203320232D4
:10047A0001320032D8A0F2D70C06D8B409D0045001
:10048A0008260550092206500A2207500B22EAD7ED
:10049A00045008260550092206500A2207500B224A
:0204AA0012003E
:1004AC00400E006E1F0E016E000E026E036E1200E7
:1004BC000B800BAE6AEF02F0026A0AAEFF0E026E00
:0C04CC00016E006E0A360232FF0E1200B4
:1004D800010E00016D6F2750601B1BC0E9FF1CC097
:1004E800EAFF2750000A03E03C50EF1202D02C50DC
:1004F800EF163BC080F0C6DE601F6D5316E06D51ED
:100508006015006E03E13C50EF1202D02C50EF163C
:100518006D376D91020E3B5C806FB4DE0000000009
:100528000000000000000000E8D72750000A03E0A0
:100538002C50EF1602D03C50EF123BC080F0A2DEE8
:0205480012009F
:10054A006DC01BF06EC01CF06FC000F0010E026E91
:10055A00005004E002360290FF0FFBD702C03AF0C7
:10056A00021C3D6E70C001F0010E006E015004E0E5
:10057A0000360090FF0FFBD700C03CF0001E00C001
:10058A002CF0120E00016D25E96E000E6E21EA6E46
:10059A000250EF120050EF16276A7553D8A4271E8F
:1005AA00120EE95E2750000A03E02C50EF1602D023
:1005BA003C50EF1276DFE80E046E030E056E000E55
:1005CA00066E076E45DF00C076F001C077F002C004
:1005DA0078F003C079F071C000F072C001F073C006
:1005EA0002F074C003F0003600900136023603367A
:1005FA00003600900136023603360A0E046E000EEB
:10060A00056E066E076E24DF00C07AF001C07BF02B
:10061A0002C07CF003C07DF000C004F001C005F008
:10062A0002C006F003C007F076C000F077C001F000
:10063A0078C002F079C003F05EDE00C07EF001C02F
:10064A007FF001C004F0056A0450051003E0020EB1
:10065A00006E50D07EC03BF07AC004F07BC005F03B
:10066A007CC006F07DC007F076C000F077C001F0CC
:10067A0078C002F079C003F03EDE08C000F009C07D
:10068A0001F00AC002F00BC003F000C076F001C00E
:10069A0077F002C078F003C079F07AC005F07BC029
:1006AA0006F07CC007F07DC008F008320732063237
:1006BA000532089E08BC088E800E0818046E800E4B
:1006CA000318045C08E10250075C05E10150065C6E
:1006DA0002E10050055CD8A03B2A3BC001F0013280
:1006EA00019E01C039F0070E015C03E2010E006EA3
:0606FA0001D0006A1200AD
:100700000B6A0A6A096A00500402F4CF09F0F3CFB9
:1007100008F001500502F4CF0BF0F3CF0AF00050BF
:100720000502F3500926F4500A22E86A0B22015010
:100730000402F3500926F4500A22E86A0B2208C08A
:1007400000F009C001F00AC002F00BC003F0120073
:1007500000016051390806E3300E605D03E3010ECD
:08076000006E01D0006A1200D6
:100768000C6A0E6A0250D8A4CDEF03F001C002F063
:1007780000C001F0006A0E860250D8A4CDEF03F045
:1007880001C002F0016A0E960E880250D8B4DFEF5D
:1007980003F00E50035ED8A4D8A0E4EF03F0D8907D
:1007A80002BEE9EF03F0003601360236032ED4EF1D
:1007B80003F0E4EF03F0010E0C6E7EDDECEF03F0C6
:1007C800020E0C6E8CDDECEF03F0040E0C6E6CDD8B
:0207D80012000D
:1007DA000A6A0350D8A40A800750D8A40A820A5089
:1007EA00D8B450EF04F0030AD8B409EF04F00AB001
:1007FA0004EF04F006AE4EEF04F04CEF04F002AE44
:10080A004CEF04F04EEF04F00250800B0A6E029E89
:10081A000650800B069E0A18D8B41AEF04F00A5044
:10082A00D8B44CEF04F04EEF04F00750035CD8B490
:10083A0024EF04F0D8A040EF04F046EF04F006508D
:10084A00025CD8B42EEF04F0D8A040EF04F046EFD3
:10085A0004F00550015CD8B438EF04F0D8A040EF9A
:10086A0004F046EF04F00450005CD8B450EF04F0F2
:10087A00D8B046EF04F00A52D8B44EEF04F04CEF69
:10088A0004F00A52D8B44CEF04F04EEF04F0D880CA
:0E089A001200D8901200D880D88412001200EC
:1008A8000CB096EF04F00CA23CEF05F00E6A000EB7
:1008B8000264ADEF04F0F00E0214D8A478EF04F04F
:1008C800023A01380F0B02260138F00B016E00388E
:1008D8000F0B01260038F00B006E08380F0B0026AE
:1008E8000838F00B086E0E84D89002BE91EF04F021
:1008F80008360036013602360E2A02BE91EF04F0A1
:1009080008360036013602360E2A02BE91EF04F090
:1009180008360036013602360E2A0E50036432EFCE
:1009280005F0035E0BBC08AE37EF05F0D880800EEB
:1009380008640030000E002201220222D8A037EFFE
:1009480005F0023201320032034A3CEF05F037EF7E
:1009580005F001C002F000C001F008C000F0086A0C
:10096800000E0E860264E4EF04F0F00E0214D8A420
:10097800CCEF04F0023A01380F0B02260138F00BD5
:10098800016E00380F0B01260038F00B006E0E8444
:10099800D89002BE91EF04F00036013602360E2AD6
:1009A80002BE91EF04F00036013602360E2A02BE6E
:1009B80091EF04F00036013602360E2A91EF04F06A
:1009C80001C002F000C001F0006A000E0E960E8809
:1009D800026411EF05F0F00E0214D8A4FCEF04F045
:1009E800023A01380F0B02260138F00B016E0E8413
:1009F800D89002BE91EF04F0013602360E2A02BEEC
:100A080091EF04F0013602360E2A02BE91EF04F08F
:100A1800013602360E2A91EF04F001C002F0016A95
:100A2800000E0E86026441EF05F0F00E0214D8A401
:100A380020EF05F0023A0E84D89002BE91EF04F040
:100A480002360E2A02BE91EF04F002360E2A02BECA
:100A580091EF04F002360E2A91EF04F0010E0C6EAD
:100A68003EDC44EF05F0020E0C6E1EDC44EF05F090
:100A7800040E0C6E28DC44EF05F0080E0C6E1CDC2E
:020A880012005A
:100A8A000450000A12E10550000A0FE10650000A5C
:100A9A000CE10750000A09E1FF0E006EFF0E016E1D
:100AAA007F0E026EFF0E036EA8D0086A096A07500D
:100ABA00D8B4F0EF05F00350D8B4F5EF05F00250C2
:100ACA0006180A6E028E068E0E6A02C008F001C06F
:100ADA000CF000C00DF004500D5E0550D8A0053C86
:100AEA000C5E0650D8A0063C085E086A0C6A0D6ABD
:100AFA00D8A087EF05F0D8900232013200320832CE
:100B0A00010E0E6E0750035ED8A094EF05F07E0E1C
:100B1A000E240326D8B0FAEF05F09AEF05F07E0E00
:100B2A000E240326D8A0FFEF05F0180E0B6E0D3623
:100B3A000C3608360036013602360E360450005E90
:100B4A000550D8A0053C015E0650D8A0063C025EBE
:100B5A0006340E120EA0B5EF05F00D80C0EF05F0B9
:100B6A00045000260550D8B0053C01260650D8B0DE
:100B7A00062802260D900B2E9CEF05F0E6EF05F0F5
:100B8A00D8900036013602360E360450005E055003
:100B9A00D8A0053C015E0650D8A0063C025E063489
:100BAA000E10010B0D26D8B00C2AD8B4082AD8A4E6
:100BBA00E6EF05F008320C320D32032AD8B4FAEF08
:100BCA0005F00AAE089E0850026E0C50016E0D50D8
:100BDA00006E02EF06F0010E5CEC01F002EF06F087
:100BEA00020E60EC01F002EF06F0040E67EC01F071
:0C0BFA0002EF06F0080E73EC01F0120090
:100C06000B6A0350D8B449EF06F002500A6E028E02
:100C16008E0E035E03AE4DEF06F0036C080E035C0A
:100C2600D8A028EF06F0036E013602C001F0026A72
:100C3600080E035CD8A028EF06F0036E0136016AA1
:100C46000350D8A4D89032EF06F00350D8B432EF50
:100C560006F0D89002320132032E2CEF06F00BBCC0
:100C660001A03FEF06F0D8A03FEF06F0012AD8B466
:100C7600022A02BE5CEF06F00AAE62EF06F0021E22
:100C8600011E012AD8B4022A62EF06F0026A016A3E
:100C960062EF06F00B800BAE66EF06F0026A0AAE54
:100CA60066EF06F0FF0E026E016E0A36023266EF3E
:100CB60006F0010E0C6E5EEC02F068EF06F0000E18
:100CC6000C6E68EF06F0FF0E0C6E0150006E0250BF
:040CD600016E120099
:100CDA00086A096A000E07620364F2EF06F002501E
:100CEA0006180A6E075003267E0ED8A083EF06F078
:100CFA00035ED8B0F7EF06F087EF06F0035ED8A0E0
:100D0A00FCEF06F0028E068E02C00EF001C00BF058
:100D1A0000C00DF000500402F4CF0CF0015005029F
:100D2A00F4CF00F0F3CF08F00402F3500C26F4508D
:100D3A000822000E00220D500502F3500C26F45032
:100D4A000822000E002202500402F3500826F45032
:100D5A00002202500502016A000E0122F350002609
:100D6A00F45001220D500602F3500826F4500022D6
:100D7A00026A000E012202220B500602F3500026DC
:100D8A00F4500122000E02220E500602F3500126F0
:100D9A00F450022202BEDAEF06F0083600360136B7
:100DAA0002360306D8B4FCEF06F0EDEF06F0D88061
:100DBA00800E08640030000E002201220222D8A010
:100DCA00EDEF06F0023201320032034AF7EF06F085
:100DDA000AAE029E000EFFEF06F0010E60EC01F073
:100DEA00FFEF06F0020E67EC01F0FFEF06F0040ECB
:060DFA0073EC01F0120091
:100E00005CC0E9FF5DC0EAFFEECF5EF0000E5F6EF2
:100E1000000E5F6E000E5F1802E1200E5E1807E004
:100E2000000E5F1802E1090E5E1801E003D05C4A73
:100E30005D2AE6D70001616B626B636B646B000E29
:100E40005F1802E12D0E5E1805E1634B642B5C4ACE
:100E50005D2A08D0000E5F1802E12B0E5E1802E139
:100E60005C4A5D2A5CC0E9FF5DC0EAFFEECF5EF040
:100E7000000E5F6E000E5F6E5EC060F069DC0052B7
:100E800018E061C000F062C001F00A0E046E000EAE
:100E9000056E36DC300E5E5C026E000E5F58036E2F
:100EA00002500024616F03500120626F5C4A5D2A8A
:100EB000D9D76351641108E061510008006E62C027
:100EC00001F0000E015604D061C000F062C001F0D4
:020ED00012000E
:100ED200830E00016D6F0F0E6E6F060E6F6F070EA1
:100EE200706F800E716F250E726F000E736F746FCC
:100EF200756BA5EC02F00050000A07E15CC060F0DF
:100F02006CEC02F0006A016A04D0010E006E000E61
:040F1200016E12005A
:100F16000B6A0C6A0A6A0350D8B4C0EF07F00A9E3F
:100F2600028E860E035E03BE9EEF07F0D8B49EEFD8
:100F360007F0C3EF07F0036C080E035CD8A0ACEF14
:100F460007F0036E0236026A0350D8A4D890B5EFB4
:100F560007F00350D8B4B5EF07F0D8900232032E4D
:100F6600B0EF07F00BBC02A0C0EF07F0D8A0C0EFAF
:100F760007F0022AD8B4CAEF07F0016AD0EF07F0EB
:100F86000B800BAED4EF07F0016AD4EF07F0010E29
:100F96000C6E5EEC02F0D6EF07F0000E0C6ED6EF8C
:0C0FA60007F0FF0E0C6E0250006E1200EF
:100FB20061C004F062C005F063C006F064C007F0CF
:100FC20065C000F066C001F067C002F068C003F0BF
:100FD20003DC010ED8B0000E006E005208E065C0BE
:100FE20061F066C062F067C063F068C064F065C01B
:100FF20004F066C005F067C006F068C007F061C083
:1010020000F062C001F063C002F064C003F03CDD96
:1010120069C004F06AC005F06BC006F06CC007F04E
:061022005BDEF0DD1200B0
:1010280000C008F00150006E016A026A036A0B6A88
:101038000C6A016A026A036A960E036E0A6A00AEB7
:101048002CEF08F0081E001E082AD8B4002A0A8EC1
:1010580000C001F008C000F0086A026AB4EC03F0AE
:02106800120074
:10106A000050086E0150006E0250016E0350026E6D
:10107A00036A0B6A0C6A9E0E036E0A6A02AE52EF8C
:10108A0008F0081E001E011E021E082AD8B4002AF3
:10109A00D8B4012AD8B4022A0A8E020E0C6E54EC75
:0410AA0004F012003C
:1010AE00936A926A4FC089FF505205E08A828A94F1
:1010BE008A868A9804D08A928A848A968A881A0E98
:1010CE000C6EF80E0D6E0D2EFED70C2EFCD70000FA
:0210DE001200FE
:1010E0004E6A4F6A506A516A6A0E956E8C840D0E74
:1010F0000D6E0D2EFED78C9483B601D0FDD783A63E
:1011000007D0010E4E26000E4F2250225122F7D753
:101110004EC000F04FC001F050C002F051C003F0CB
:10112000A4DF00C061F001C062F002C063F003C040
:1011300064F0000E0001656F000E666F7A0E676F37
:10114000890E686F000E696F000E6A6F7F0E6B6FFD
:08115000860E6C6F2EDF120009
:101158004EC0E1FF4FC0E2FFE66A010E516E506AD1
:101168001D901BC0E9FF1CC0EAFF2750000A13E1CD
:101178003A50EF14016E0150000A0CE01DA009D08E
:101188004EC0E1FF4FC0E2FFFF0EE66E50C000F018
:101198005BD0EED712D03A50EF14016E0150000A1E
:1011A8000CE11DA009D04EC0E1FF4FC0E2FFFF0EC9
:1011B800E66E50C000F048D0EED739C080F046EC5B
:1011C80001F03BC080F046EC01F0515216E03A5075
:1011D800EF14016E0150000A02E0515050125136CE
:1011E8005190020E3B5C806F46EC01F0000000005D
:1011F8000000000000000000E8D72750000A10E1B6
:101208003A50EF14016E0150000A010ED8A4000EE6
:10121800006E4EC0E1FF4FC0E2FF00C0E6FF0FD0F6
:101228003A50EF14016E0150000A000ED8A4010EC6
:10123800006E4EC0E1FF4FC0E2FF00C0E6FF27503E
:0A1248005018006E00C050F01200B4
:10125200526A536A546A556A566A576A586A5150B2
:10126200505C016E026A000E025A800E5318006E24
:10127200800E0218005C02E10150525CD8B073D0BB
:1012820052504E24E96E53504F20EA6EEE50030A3C
:1012920067E1010E5224006E000E5320016E0050D1
:1012A2004E24E96E01504F20EA6EEE50020A58E1D8
:1012B200050E5224006E000E5320016E00504E2483
:1012C200E96E01504F20EA6EEE50030A49E1060E24
:1012D2005224006E000E5320016E00504E24E96E1F
:1012E20001504F20EA6EEE50020A3AE1020E5224F9
:1012F200006E000E5320016E00504E24E96E015024
:101302004F20EA6EEECF54F0030E5224006E000E10
:101312005320016E00504E24E96E01504F20EA6EB8
:10132200EECF55F0040E5224006E000E5320016ED3
:1013320000504E24E96E01504F20EA6EEECF56F077
:10134200576A54C05CF0C4DD55C05CF0C1DD56C0C4
:101352005CF0BEDD540E5C6E000E5D6E50DD03D09F
:08136200524A532A7CD7120005
:10136A000F0EC16E070EB46E800EF16E896A8B6A1B
:10137A008C6A8D6A030E926E946A956A966A806A7E
:0C138A00826A836A846A030E896E120076
:101396004E6A4F6A506A516A6A0E956E8C880D0EB7
:1013A6000D6E0D2EFED78C9883BA01D0FDD783AA79
:1013B60007D0010E4E26000E4F2250225122F7D79B
:1013C6004EC000F04FC001F050C002F051C003F013
:1013D60049DE00C061F001C062F002C063F003C0E4
:1013E60064F0000E0001656F000E666F7A0E676F7F
:1013F600890E686F000E696F000E6A6F7F0E6B6F45
:08140600860E6C6FD3DD1200AD
:10140E004E6A4F6A506A516A6A0E956E8C800D0E46
:10141E000D6E0D2EFED78C9083B201D0FDD783A218
:10142E0007D0010E4E26000E4F2250225122F7D722
:10143E004EC000F04FC001F050C002F051C003F09A
:10144E000DDE00C061F001C062F002C063F003C0A7
:10145E0064F0000E0001656F000E666F7A0E676F06
:10146E00890E686F000E696F000E6A6F7F0E6B6FCC
:08147E00860E6C6F97DD120071
:10148600800E5118006E800E4F18005C02E14E501F
:10149600505C04E250C04EF051C04FF052C000F014
:1014A60053C001F0BEDD00C058F001C059F002C0C3
:1014B6005AF003C05BF04EC000F04FC001F0B1DD42
:1014C60000C054F001C055F002C056F003C057F0FA
:1014D60050C000F051C001F0A4DD00C004F001C00E
:1014E60005F002C006F003C007F054C000F055C076
:1014F60001F056C002F057C003F045EC05F058C0A5
:1015060004F059C005F05AC006F05BC007F06DEC58
:0615160006F0FEDC1200ED
:04151C0026DF1200B4
:10152000FF0E286EFF0E296EFF0E2A6EFF0E2B6E29
:10153000FF0E2D6EFF0E2E6E000E2F6E000E306E03
:10154000FF0E356EFF0E366E000E376E000E386ED3
:10155000FF0E316EFF0E326E000E336E000E346ED3
:10156000AC8A900EAB6E948E949C9EAA03D0AECFA4
:0615700000F0FBD71200A1
:10157600426A436A446A456A466A476A486A496AE9
:101586004A6A4B6A4C6A4D6A090E966E090E8D6E52
:10159600840E00016D6F0F0E6E6F6F6B010E706F14
:1015A600800E716F250E726F000E736F746F756B00
:1015B600A5EC02F00050000AD8A48DD03FC04EF032
:1015C600000E4F6EC6DD00C042F03FC04EF0000E6A
:1015D6004F6EBFDD00C043F03FC04EF0000E4F6EB1
:1015E600B8DD00C044F03FC04EF0000E4F6EB1DDD6
:1015F60000C045F03FC04EF0000E4F6EAADD00C0A1
:1016060046F03FC04EF0000E4F6EA3DD00C047F01F
:101616003FC04EF0000E4F6E9CDD00C048F03FC04C
:101626004EF0000E4F6E95DD00C049F03FC04EF003
:10163600000E4F6E8EDD00C04AF03FC04EF0000E29
:101646004F6E87DD00C04BF03FC04EF0000E4F6E70
:1016560080DD00C04CF03FC04EF0000E4F6E79DDCD
:1016660000C04DF03FC04EF0000E4F6E72DD00C060
:101676004EF0340E0C6EF10E0D6E0D2EFED70C2EA6
:10168600FCD700000000420E4E6E000E4F6E0C0E90
:10169600506E070E516EDADD00C040F001C041F019
:1016A600340E0C6EF10E0D6E0D2EFED70C2EFCD7E1
:1016B600000000003E50010A0DE140C04EF041C05E
:1016C6004FF0680E506E010E516EFF0E526E000EF8
:1016D600536ED6DE0FD03E50010A0CE1FF0E5C6E53
:1016E60069EC07F0FF0E5C6E69EC07F0FF0E5C6EAE
:0A16F60069EC07F0006A016A1200B7
:10170000936A926A3EC089FF8A828A948A968A88FE
:021710001200C5
:1017120041DE42C0E1FF43C0E2FF00C0E6FF01C07C
:10172200E6FF74DE3EC0E1FF3FC0E2FF00C0E6FF1D
:1017320001C0E6FFD4DC40C0E1FF41C0E2FF00C0CF
:0C174200E6FF01C0E6FF006A016A120029
:0E174E00C80E4E6E030E4F6E506AAADC1200DB
:10175C00C80E4E6E030E4F6E010E506EA2DC1200C0
:10176C000F0EC112070EB412D3DE2A0E956E936AB9
:10177C008A6A8C6AB886B06ACF0EAF6EAC84CADE49
:10178C003E6AF3DE00C020F001C021F0020E0B6EA9
:10179C00040E0C6EBA0E0D6E0D2EFED70C2EFCD751
:1017AC000B2EFAD70000070E3E6EA4DF1E6A1F6ACE
:1017BC00010E226E230E3E6E000E3F6E170E406E13
:1017CC00000E416E150E426E000E436E9CDF00C083
:1017DC0025F001C026F0010E5C6E69EC07F023C009
:1017EC005CF069EC07F0020E5C6E69EC07F015C05A
:1017FC005CF069EC07F0030E5C6E69EC07F017C047
:10180C005CF069EC07F0040E5C6E69EC07F0010EFD
:10181C003E6EABDE00C019F001C01AF0050E5C6E16
:10182C0069EC07F022C05CF069EC07F0060E5C6E08
:10183C0069EC07F02250000AD8B4D4D0800E1818E6
:10184C00006E800E005C02E1190E175C1FE2800E28
:10185C001618006E800E005C02E1190E155C16E382
:10186C00800E2418006E800E005C02E1190E235CC1
:10187C000DE3800E2418006E800E1618005C02E139
:10188C001550235C02E264DF01D05BDF800E16187A
:10189C00006E800E005C02E1190E155C13E2800EE6
:1018AC001818006E800E005C02E1190E175C0AE23B
:1018BC00800E2418006E800E005C02E1190E235C71
:1018CC0001E346DF800E2418006E800E005C02E1FE
:1018DC00190E235C13E2800E1818006E800E005C4B
:1018EC0002E1190E175C0AE2800E1618006E800ECB
:1018FC00005C02E1190E155C01E323DF800E241855
:10190C00006E800E005C02E1190E235C14E2800E66
:10191C001818006E800E005C02E1190E175C0BE2C9
:10192C00800E1618006E800E005C02E1190E155C1C
:10193C0002E23E6ADFDE800E006E800E2418005C30
:10194C0002E1235019084EE2800E006E800E18182A
:10195C00005C02E11750190845E2800E006E800E03
:10196C001618005C02E1155019083CE2800E1A189A
:10197C00006E800E2118005C02E12050195C13E20D
:10198C001950205C016E1A502158026E800E006EA8
:10199C00800E0218005C02E10150B40802E2D8DEAD
:1019AC0001D0CFDE1CD0800E2118006E800E1A18CC
:1019BC00005C02E11950205C12E22050195C016EAF
:1019CC0021501A58026E800E006E800E0218005CB8
:1019DC0002E10150B40802E2B4DE01D0B9DE030E1C
:1019EC003E6E88DE000E1F1802E1000E1E1806E186
:1019FC008A80010E1E6E000E1F6E03D01E6A1F6AB7
:061A0C008A90D8D6FFD736
:020000040030CA
:0E000000210C3F1EFF8381FF0FC00FE00F4059
:00000001FF
