:1000000079EF03F00000000000EF00F000000000B6
:0A0010000000000000000000F3D71C
:0E001C00026A016A006A086A036A000E120096
:10002A000B820BAE1FEF00F00368026801680068DC
:08003A000A360232FF0E12002B
:080042000AAE029E000E12003E
:10004A000B840BAE30EF00F0010E036E026A016AF8
:0A005A00006A0A360232FF0E12009F
:100064000F0EC16E070EB46E800EF16E896A8B6A34
:100074008C6A8D6A030E926E946A956A966A806A97
:0C008400826A836A846A030E896E12008F
:100090000CB08AEF00F00CA230EF01F00E6A000EF7
:1000A0000264A1EF00F0F00E0214D8A46CEF00F08F
:1000B000023A01380F0B02260138F00B016E0038AE
:1000C0000F0B01260038F00B006E08380F0B0026CE
:1000D0000838F00B086E0E84D89002BE85EF00F051
:1000E00008360036013602360E2A02BE85EF00F0D1
:1000F00008360036013602360E2A02BE85EF00F0C1
:1001000008360036013602360E2A0E50036426EFFA
:1001100001F0035E0BBC08AE2BEF01F0D880800E1F
:1001200008640030000E002201220222D8A02BEF2A
:1001300001F0023201320032034A30EF01F02BEFBE
:1001400001F001C002F000C001F008C000F0086A30
:10015000000E0E860264D8EF00F0F00E0214D8A450
:10016000C0EF00F0023A01380F0B02260138F00B05
:10017000016E00380F0B01260038F00B006E0E8464
:10018000D89002BE85EF00F00036013602360E2A06
:1001900002BE85EF00F00036013602360E2A02BE9E
:1001A00085EF00F00036013602360E2A85EF00F0AA
:1001B00001C002F000C001F0006A000E0E960E8829
:1001C000026405EF01F0F00E0214D8A4F0EF00F085
:1001D000023A01380F0B02260138F00B016E0E8433
:1001E000D89002BE85EF00F0013602360E2A02BE1C
:1001F00085EF00F0013602360E2A02BE85EF00F0D0
:10020000013602360E2A85EF00F001C002F0016AC5
:10021000000E0E86026435EF01F0F00E0214D8A431
:1002200014EF01F0023A0E84D89002BE85EF00F080
:1002300002360E2A02BE85EF00F002360E2A02BEFA
:1002400085EF00F002360E2A85EF00F0010E0C6EED
:10025000FCDE38EF01F0020E0C6EF3DE38EF01F039
:10026000040E0C6EE2DE38EF01F0080E0C6ED6DEE6
:0202700012007A
:100272000B800BAE45EF01F0026A0AAEFF0E026E72
:0C028200016E006E0A360232FF0E120000
:10028E000B6A0C6A0A6A0350D8B47CEF01F00A9E1E
:10029E00028E860E035E03BE5AEF01F0D8B45AEFFB
:1002AE0001F07FEF01F0036C080E035CD8A068EF3D
:1002BE0001F0036E0236026A0350D8A4D89071EF93
:1002CE0001F00350D8B471EF01F0D8900232032E32
:1002DE006CEF01F00BBC02A07CEF01F0D8A07CEF1C
:1002EE0001F0022AD8B486EF01F0016A8BEF01F01B
:1002FE000B800BAE8FEF01F0016A8FEF01F0010E54
:10030E000C6EB0DF91EF01F0000E0C6E91EF01F06C
:0A031E00FF0E0C6E0250006E12007C
:100328007E0E306E030E316E400E326E000E336E4E
:10033800FF0E3C6EFF0E3D6E000E3E6E000E3F6ED1
:10034800FF0E386EFF0E396E000E3A6E000E3B6ED1
:10035800FF0E346EFF0E356E000E366E000E376ED1
:10036800AC8A900EAB6E948E949C9EAA03D0AECFAE
:0603780000F0FBD71200AB
:0E037E00ACB202D00000FCD740C0ADFF1200B0
:04038C006BDE120012
:100390000050086E0150006E0250016E0350026E54
:1003A000036A0B6A0C6A9E0E036E0A6A020E0C6EDA
:0403B0006FDE1200EA
:1003B4000B6A0A6A096A086A0E6A0334083604502A
:1003C400085E0550D8A0053C095E0650D8A0063C3E
:1003D4000A5E0750D8A0073C0B5EE86AD8A0010E5D
:1003E4000E5E0336070E0C6E0334083609360A36E1
:1003F4000B360E36045003A012D0085E0550D8A068
:10040400053C095E0650D8A0063C0A5E0750D8A0F9
:10041400073C0B5EE86AD8A0010E0E5E11D00826D8
:100424000550D8B0053C09260650D8B0063C0A262B
:100434000750D8B0073C0B26E86AD8B0010E0E2648
:1004440003360C2ED1D70234083609360A360B3659
:100454000E36045003A012D0085E0550D8A0053C07
:10046400095E0650D8A0063C0A5E0750D8A0073C97
:100474000B5EE86AD8A0010E0E5E11D00826055066
:10048400D8B0053C09260650D8B0063C0A260750C9
:10049400D8B0073C0B26E86AD8B0010E0E26023607
:1004A400070E0C6E0234083609360A360B360E3641
:1004B400045002A012D0085E0550D8A0053C095E85
:1004C4000650D8A0063C0A5E0750D8A0073C0B5E35
:1004D400E86AD8A0010E0E5E11D008260550D8B0E7
:1004E400053C09260650D8B0063C0A260750D8B069
:1004F400073C0B26E86AD8B0010E0E2602360C2EF5
:10050400D1D70134083609360A360B360E36045074
:1005140002A012D0085E0550D8A0053C095E065022
:10052400D8A0063C0A5E0750D8A0073C0B5EE86AD8
:10053400D8A0010E0E5E11D008260550D8B0053C97
:1005440009260650D8B0063C0A260750D8B0073C06
:100554000B26E86AD8B0010E0E260136070E0C6E83
:100564000134083609360A360B360E36045001A01B
:1005740012D0085E0550D8A0053C095E0650D8A0EC
:10058400063C0A5E0750D8A0073C0B5EE86AD8A078
:10059400010E0E5E11D008260550D8B0053C092680
:1005A4000650D8B0063C0A260750D8B0073C0B26A4
:1005B400E86AD8B0010E0E2601360C2ED1D70034CD
:1005C400083609360A360B360E36045001A012D00E
:1005D400085E0550D8A0053C095E0650D8A0063C2C
:1005E4000A5E0750D8A0073C0B5EE86AD8A0010E4B
:1005F4000E5E11D008260550D8B0053C09260650D9
:10060400D8B0063C0A260750D8B0073C0B26E86A47
:10061400D8B0010E0E260036070E0C6E00340836D4
:1006240009360A360B360E36045000A012D0085E86
:100634000550D8A0053C095E0650D8A0063C0A5EC9
:100644000750D8A0073C0B5EE86AD8A0010E0E5EE6
:1006540011D008260550D8B0053C09260650D8B05C
:10066400063C0A260750D8B0073C0B26E86AD8B0E7
:10067400010E0E2600360C2ED1D700B00ED0045039
:1006840008260550D8B0053C09260650D8B0063CCB
:0C0694000A260750D8B0073C0B261200C5
:1006A000220E0C6E086A096A0A6A0B6A0C06D8B434
:1006B0001FD0D8900B320A3209320832033202328C
:1006C00001320032D8A0F2D70C06D8B409D00450B9
:1006D00008260550092206500A2207500B22EAD7A5
:1006E000045008260550092206500A2207500B2202
:0206F0001200F6
:1006F2000F0EC112070EB41248DE2A0E956E936ACF
:100702008A6A8C6AB886B06ACF0EAF6EAC840BDE92
:10071200020E0B6E040E0C6EBA0E0D6E0D2EFED76F
:100722000C2EFCD70B2EFAD70000246A256A266A03
:10073200276A2C6A2D6A2E6A2F6A286A296A2A6A0F
:100742002B6A010E8C6E0D0E0D6E0D2EFED78C6A6D
:1007520083B205D0246A256A266A276AF9D783A25A
:1007620007D0010E2426000E252226222722F7D7A3
:100772002750000808E12650000805E1255003082B
:1007820002E12450E80807E2E80E246E030E256E0B
:10079200000E266E276EFF0E006E000E016E026EB8
:1007A200036E24C004F025C005F026C006F027C061
:1007B20007F075DFE80E046E030E056E000E066E7E
:1007C200076EF7DDE4DD00C018F001C019F002C0C9
:1007D2001AF003C01BF05ADD00C015F000C040F053
:1007E200CDDD040E8C6E0D0E0D6E0D2EFED78C6AB5
:1007F20083B605D0286A296A2A6A2B6AF9D783A6A2
:1008020007D0010E2826000E29222A222B22F7D7F2
:100812002B50000808E12A50000805E1295003087E
:1008220002E12850E80807E2E80E286E030E296E5E
:10083200000E2A6E2B6EFF0E006E000E016E026E0F
:10084200036E28C004F029C005F02AC006F02BC0B0
:1008520007F025DFE80E046E030E056E000E066E2D
:10086200076EA7DD94DD00C01CF001C01DF002C0C0
:100872001EF003C01FF00ADD00C016F000C040F0F9
:100882007DDD100E8C6E0D0E0D6E0D2EFED78C6A58
:1008920083BA05D02C6A2D6A2E6A2F6AF9D783AAE9
:1008A20007D0010E2C26000E2D222E222F22F7D742
:1008B2002F50000808E12E50000805E12D500308D2
:1008C20002E12C50E80807E2E80E2C6E030E2D6EB2
:1008D200000E2E6E2F6EFF0E006E000E016E026E67
:1008E200036E2CC004F02DC005F02EC006F02FC000
:1008F20007F0D5DEE80E046E030E056E000E066EDE
:10090200076E57DD44DD00C020F001C021F002C0B7
:1009120022F003C023F0BADC00C017F000C040F0A0
:100922002DDD406A2BDD0B0E0B6E260E0C6E5D0E5E
:100932000D6E0D2EFED70C2EFCD70B2EFAD7000013
:1009420000008152010ED8A4000E8A6EEED6FFD7A7
:020000040030CA
:0E000000210E3F1EFF8381FF0FC00FE00F4057
:00000001FF
