:10000000A6EF0BF00000000000EF00F00000000081
:0A0010000000000000000000F3D71C
:10001C000B1E0A1E091E081E082AD8B4092AD8B4B9
:08002C000A2AD8B40B2A1200C5
:100034000450085E0550D8A0053C095E0650D8A0BF
:10004400063C0A5E0750D8A0073C0B5E0336070E39
:100054000C6E0334083609360A360B36045003A0F6
:100064000ED0085E0550D8A0053C095E0650D8A005
:10007400063C0A5E0750D8A0073C0B5E0DD008264C
:100084000550D8B0053C09260650D8B0063C0A26CF
:100094000750D8B0073C0B2603360C2EDAD70234AF
:1000A400083609360A360B36045003A00ED0085E13
:1000B4000550D8A0053C095E0650D8A0063C0A5E4F
:1000C4000750D8A0073C0B5E0DD008260550D8B0C9
:1000D400053C09260650D8B0063C0A260750D8B07D
:1000E400073C0B260236070E0C6E0234083609361E
:1000F4000A360B36045002A00ED0085E0550D8A074
:10010400053C095E0650D8A0063C0A5E0750D8A0FC
:10011400073C0B5E0DD008260550D8B0053C0926D7
:100124000650D8B0063C0A260750D8B0073C0B2628
:1001340002360C2EDAD70134083609360A360B3665
:10014400045002A00ED0085E0550D8A0053C095EFC
:100154000650D8A0063C0A5E0750D8A0073C0B5EA8
:100164000DD008260550D8B0053C09260650D8B055
:10017400063C0A260750D8B0073C0B260136070E6A
:100184000C6E0134083609360A360B36045001A0C9
:100194000ED0085E0550D8A0053C095E0650D8A0D4
:1001A400063C0A5E0750D8A0073C0B5E0DD008261B
:1001B4000550D8B0053C09260650D8B0063C0A269E
:1001C4000750D8B0073C0B2601360C2EDAD7003482
:1001D400083609360A360B36045001A00ED0085EE4
:1001E4000550D8A0053C095E0650D8A0063C0A5E1E
:1001F4000750D8A0073C0B5E0DD008260550D8B098
:10020400053C09260650D8B0063C0A260750D8B04B
:10021400073C0B260036070E0C6E003408360936F0
:100224000A360B36045000A00ED0085E0550D8A044
:10023400053C095E0650D8A0063C0A5E0750D8A0CB
:10024400073C0B5E0DD008260550D8B0053C0926A6
:100254000650D8B0063C0A260750D8B0073C0B26F7
:1002640000360C2EDAD700B00ED004500826055004
:10027400D8B0053C09260650D8B0063C0A260750DB
:08028400D8B0073C0B26120064
:10028C00220E0C6E086A096A0A6A0B6A0C06D8B44C
:10029C001FD0D8900B320A320932083203320232A4
:1002AC0001320032D8A0F2D70C06D8B409D00450D1
:1002BC0008260550092206500A2207500B22EAD7BD
:1002CC00045008260550092206500A2207500B221A
:0202DC0012000E
:1002DE000450000A12E10550000A0FE10650000A10
:1002EE000CE10750000A09E1FF0E006EFF0E016ED1
:1002FE00FF0E026E7F0E036E97D00C6A07BE0C2A9D
:10030E000D6A0B6A0A6A096A086A03500210011024
:10031E000010D8B484D0035007180E6E0EBE0D1EFA
:10032E0007AE0BD0041E051E061E071E042AD8B4E7
:10033E00052AD8B4062AD8B4072A03AE0BD0001E5D
:10034E00011E021E031E002AD8B4012AD8B4022AA6
:10035E00D8B4032A035007100E6E0EBE1CD063DEF7
:10036E000CBE36D00DAE5BD0001E011E021E031E4B
:10037E00002AD8B4012AD8B4022AD8B4032A081EF7
:10038E00091E0A1E0B1E082AD8B4092AD8B40A2A36
:10039E00D8B40B2A44D007AE15D003BE0DD00350EF
:1003AE000B6E02500A6E0150096E0050086E036A01
:1003BE00026A016A006AD6D7036A026A016A006A93
:1003CE00002A000C031E021E011E001E0C8EC7D733
:1003DE00082AD8B4092AD8B40A2AD8B40B2A045049
:1003EE00085CD8A4BFD70550095CD8A4BBD706506B
:1003FE000A5CD8A4B7D707500B5CD8A4B3D70B6A46
:10040E000A6A096A086A002AD8B4012AD8B4022AEC
:10041E00D8B4032A03AEA6D70E6A0E88FF0C0E6A56
:0A042E000CA001D0F4DD000F120055
:1004380000018C078C078CC001F08C070150000864
:1004480003E200000000F7D70000000000000000F1
:04045800000012008E
:10045C000B800BAE3AEF02F0026A0AAEFF0E026E90
:0C046C00016E006E0A360232FF0E120014
:080478000B6A0B86FF0E120057
:10048000400E006E1F0E016E000E026E036E120013
:0E049000026A016A006A086A036A000E12001E
:10049E000B820BAE59EF02F0036802680168006828
:0804AE000A360232FF0E1200B3
:0804B6000AAE029E000E1200C6
:1004BE000B840BAE6AEF02F0010E036E026A016A44
:0A04CE00006A0A360232FF0E120027
:1004D8000A6A0350D8A40A800750D8A40A820A508E
:1004E800D8B4CFEF02F0030AD8B488EF02F00AB00C
:1004F80083EF02F006AECDEF02F0CBEF02F002AED2
:10050800CBEF02F0CDEF02F00250800B0A6E029E94
:100518000650800B069E0A18D8B499EF02F00A50CC
:10052800D8B4CBEF02F0CDEF02F00750035CD8B49B
:10053800A3EF02F0D8A0BFEF02F0C5EF02F006501B
:10054800025CD8B4ADEF02F0D8A0BFEF02F0C5EF5F
:1005580002F00550015CD8B4B7EF02F0D8A0BFEFA5
:1005680002F0C5EF02F00450005CD8B4CFEF02F0FF
:10057800D8B0C5EF02F00A52D8B4CDEF02F0CBEFF5
:1005880002F00A52D8B4CBEF02F0CDEF02F0D880D7
:0E0598001200D8901200D880D88412001200F1
:1005A600086A096A000E0762036458EF03F00250F6
:1005B60006180A6E075003267E0ED8A0E9EF02F051
:1005C600035ED8B05CEF03F0EDEF02F0035ED8A057
:1005D60060EF03F0028E068E02C00EF001C00BF033
:1005E60000C00DF000500402F4CF0CF001500502DB
:1005F600F4CF00F0F3CF08F00402F3500C26F450C9
:100606000822000E00220D500502F3500C26F4506D
:100616000822000E002202500402F3500826F4506D
:10062600002202500502016A000E0122F350002644
:10063600F45001220D500602F3500826F450002211
:10064600026A000E012202220B500602F350002617
:10065600F4500122000E02220E500602F35001262B
:10066600F450022202BE40EF03F00836003601368F
:1006760002360306D8B460EF03F053EF03F0D880D8
:10068600800E08640030000E002201220222D8A04B
:1006960053EF03F0023201320032034A5CEF03F0FB
:1006A6000AAE029E000E62EF03F0010EEEDE62EF6E
:1006B60003F0020EF1DE62EF03F0040EFDDE12001F
:1006C6000B6A0C6A0A6A0350D8B4ADEF03F0028EC7
:1006D6008E0E035E03BE75EF03F0D8B475EF03F01C
:1006E600B1EF03F0036C080E035CD8A08CEF03F0A7
:1006F600036E013602C001F0026A080E035CD8A040
:100706008CEF03F00136016A0350D8A4D89096EF17
:1007160003F00350D8B496EF03F0D89002320132BA
:10072600032E90EF03F00BBC01A0A3EF03F0D8A0BB
:10073600A3EF03F0012AD8B4022A02BEC0EF03F0E9
:100746000AAEC5EF03F0021E011E012AD8B4022A22
:10075600C5EF03F0026A016AC5EF03F00B800BAE2A
:10076600C9EF03F0026A0AAEC9EF03F0FF0E026E8C
:10077600016E0A360232C9EF03F0010E0C6E6BDE13
:10078600CBEF03F0000E0C6ECBEF03F0FF0E0C6EFA
:0A0796000150006E0250016E1200C7
:1007A0000450000A12E10550000A0FE10650000A49
:1007B0000CE10750000A09E1FF0E006EFF0E016E0A
:1007C0007F0E026EFF0E036EA4D0086A096A0750FE
:1007D000D8B47BEF04F00350D8B47FEF04F002509C
:1007E00006180A6E028E068E0E6A02C008F001C05C
:1007F0000CF000C00DF004500D5E0550D8A0053C73
:100800000C5E0650D8A0063C085E086A0C6A0D6AA9
:10081000D8A012EF04F0D890023201320032083230
:10082000010E0E6E0750035ED8A01FEF04F07E0E7F
:100830000E240326D8B083EF04F025EF04F07E0EDB
:100840000E240326D8A087EF04F0180E0B6E0D3689
:100850000C3608360036013602360E360450005E7D
:100860000550D8A0053C015E0650D8A0063C025EAB
:1008700006340E120EA040EF04F00D804BEF04F092
:10088000045000260550D8B0053C01260650D8B0CB
:10089000062802260D900B2E27EF04F071EF04F0CE
:1008A000D8900036013602360E360450005E0550F0
:1008B000D8A0053C015E0650D8A0063C025E063476
:1008C0000E10010B0D26D8B00C2AD8B4082AD8A4D3
:1008D00071EF04F008320C320D32032AD8B483EFE2
:1008E00004F00AAE089E0850026E0C50016E0D50C6
:1008F000006E89EF04F0010EBFDD89EF04F0020EF7
:10090000C7DD89EF04F0040ECADD89EF04F0080E9C
:04091000D6DD12001E
:100914000CB0CCEF04F00CA272EF05F00E6A000EDE
:100924000264E3EF04F0F00E0214D8A4AEEF04F076
:10093400023A01380F0B02260138F00B016E003821
:100944000F0B01260038F00B006E08380F0B002641
:100954000838F00B086E0E84D89002BEC7EF04F07E
:1009640008360036013602360E2A02BEC7EF04F0FE
:1009740008360036013602360E2A02BEC7EF04F0EE
:1009840008360036013602360E2A0E50036468EF2C
:1009940005F0035E0BBC08AE6DEF05F0D880800E49
:1009A40008640030000E002201220222D8A06DEF5C
:1009B40005F0023201320032034A72EF05F06DEFA6
:1009C40005F001C002F000C001F008C000F0086AA0
:1009D400000E0E8602641AEF05F0F00E0214D8A47D
:1009E40002EF05F0023A01380F0B02260138F00B32
:1009F400016E00380F0B01260038F00B006E0E84D8
:100A0400D89002BEC7EF04F00036013602360E2A33
:100A140002BEC7EF04F00036013602360E2A02BECB
:100A2400C7EF04F00036013602360E2AC7EF04F091
:100A340001C002F000C001F0006A000E0E960E889C
:100A4400026447EF05F0F00E0214D8A432EF05F06B
:100A5400023A01380F0B02260138F00B016E0E84A6
:100A6400D89002BEC7EF04F0013602360E2A02BE49
:100A7400C7EF04F0013602360E2A02BEC7EF04F0B7
:100A8400013602360E2AC7EF04F001C002F0016AF3
:100A9400000E0E86026477EF05F0F00E0214D8A45F
:100AA40056EF05F0023A0E84D89002BEC7EF04F068
:100AB40002360E2A02BEC7EF04F002360E2A02BE28
:100AC400C7EF04F002360E2AC7EF04F0010E0C6ED5
:100AD400F4DC7AEF05F0020E0C6EEBDC7AEF05F035
:100AE400040E0C6EDADC7AEF05F0080E0C6ECEDC28
:020AF4001200EE
:100AF60079C040F07AC041F07BC000F0010E026E72
:100B0600005004E002360290FF0FFBD702C047F008
:100B1600021C2D6E7CC001F0010E006E015004E037
:100B260000360090FF0FFBD700C02FF0001E00C05C
:100B36002EF0120E00017925E96E000E7A21EA6E7A
:100B46000250EF120050EF16446A8153D8A4441E97
:100B5600120EE95E4450000A03E02E50EF1602D052
:100B66002F50EF128ADCE80E046E030E056E000E9F
:100B7600066E076E46EC01F000C082F001C083F0FD
:100B860002C084F003C085F07DC000F07EC001F095
:100B96007FC002F080C003F00036009001360236B6
:100BA6000336003600900136023603360A0E046E0E
:100BB600000E056E066E076E46EC01F000C086F06C
:100BC60001C087F002C088F003C089F000C004F0BD
:100BD60001C005F002C006F003C007F082C000F0B5
:100BE60083C001F084C002F085C003F06FEC01F011
:100BF60000C08AF001C08BF001C004F0056A045001
:100C0600051003E0020E006E51D08AC045F086C082
:100C160004F087C005F088C006F089C007F082C0DE
:100C260000F083C001F084C002F085C003F06FECD1
:100C360001F008C000F009C001F00AC002F00BC0C4
:100C460003F000C082F001C083F002C084F003C04C
:100C560085F086C005F087C006F088C007F089C019
:100C660008F00832073206320532089E08BC088EA4
:100C7600800E0818046E800E0318045C08E102500A
:100C8600075C05E10150065C02E10050055CD8A056
:100C9600452A45C001F00132019E01C046F0070E0B
:0E0CA600015C03E2010E006E01D0006A120034
:100CB400010E0001606F44505F1A40C0E9FF41C05B
:100CC400EAFF4450000A03E02F50EF1202D02E50E6
:100CD400EF1645C08CF01CEC02F05F1E605317E069
:100CE40060515F14006E03E12F50EF1202D02E50BA
:100CF400EF1660376091020E455C8C6F1CEC02F0BD
:100D0400000000000000000000000000E7D744508D
:100D1400000A03E02E50EF1602D02F50EF1245C008
:080D24008CF01CEC02F012003F
:100D2C000B6A0A6A096A00500402F4CF09F0F3CF87
:100D3C0008F001500502F4CF0BF0F3CF0AF000508D
:100D4C000502F3500926F4500A22E86A0B220150DE
:100D5C000402F3500926F4500A22E86A0B2208C058
:100D6C0000F009C001F00AC002F00BC003F0120041
:100D7C006DC004F06EC005F06FC006F070C007F0D7
:100D8C0071C000F072C001F073C002F074C003F0C7
:100D9C006CEC02F0010ED8B0000E006E005208E0B0
:100DAC0071C06DF072C06EF073C06FF074C070F0F3
:100DBC0071C004F072C005F073C006F074C007F087
:100DCC006DC000F06EC001F06FC002F070C003F097
:100DDC00E1DC75C004F076C005F077C006F078C091
:0A0DEC0007F0D3EC02F069DC1200FE
:100DF600830E0001796F0F0E7A6F060E7B6F070E5A
:100E06007C6F800E7D6F250E7E6F000E7F6F806F6C
:100E1600816B6EDE0050000A06E15EC05FF047DFC0
:100E2600006A016A04D0010E006E000E016E120007
:100E36000050086E0150006E0250016E0350026EA3
:100E4600036A0B6A0C6A9E0E036E0A6A02AE38EFDC
:100E560007F0081E001E011E021E082AD8B4002A2A
:100E6600D8B4012AD8B4022A0A8E020E0C6E4FDDBF
:020E7600120068
:100E78000C6A0E6A0250D8A455EF07F001C002F0C0
:100E880000C001F0006A0E860250D8A455EF07F0A2
:100E980001C002F0016A0E960E880250D8B467EFBE
:100EA80007F00E50035ED8A4D8A06DEF07F0D890D5
:100EB80002BE73EF07F0003601360236032E5CEFF0
:100EC80007F06DEF07F0010E0C6E48EC02F077EFBB
:100ED80007F0020E0C6E5FEC02F077EF07F0040EDD
:080EE8000C6E5BEC02F012003D
:100EF0000F0EC16E070EB46E800EF16E896A8B6A9A
:100F00008C6A8D6A030E926E946A956A966A806AFC
:0C0F1000826A836A846A030E896E1200F4
:100F1C005A6A5B6A5C6A5D6A6A0E956E8C880D0E05
:100F2C000D6E0D2EFED78C9883BA01D0FDD783AAF7
:100F3C0007D0010E5A26000E5B225C225D22F7D7E9
:100F4C005AC000F05BC001F05CC002F05DC003F061
:100F5C006CDF00C06DF001C06EF002C06FF003C01A
:100F6C0070F0000E0001716F000E726F7A0E736FCD
:100F7C00890E746F000E756F000E766F7F0E776F93
:080F8C00860E786FF5DE1200FD
:100F94000050086E0150006E016A026A036A0B6A0F
:100FA4000C6A960E036E0A6A00C001F008C000F0D5
:080FB400086A026A5FDF120007
:100FBC005A6A5B6A00016451635D016E026A000E3D
:100FCC00025A02505B5C02E101505A5CD8B0F8D076
:100FDC005A506125E96E5B506221EA6EEE50030AAD
:100FEC00D8A4EBD0010E5A24006E000E5B20016ECB
:100FFC0000506125E96E01506221EA6EEE50020A42
:10100C00D8A4DBD0050E5A24006E000E5B20016EB6
:10101C0000506125E96E01506221EA6EEE50030A20
:10102C00D8A4CBD0060E5A24006E000E5B20016EA5
:10103C0000506125E96E01506221EA6EEE50020A01
:10104C00D8A4BBD0020E5A24006E000E5B20016E99
:10105C0000506125E96E01506221EA6E65C0E1FF26
:10106C0066C0E2FFEECFE6FF010E6525E16E000ED5
:10107C006621E26E030E5A24006E000E5B20016E98
:10108C0000506125E96E01506221EA6EEECFE6FF59
:10109C00020E6525E16E000E6621E26E040E5A24E6
:1010AC00006E000E5B20016E00506125E96E015050
:1010BC006221EA6EEECFE6FF67532FE0020E5A2450
:1010CC00006E000E5B20016E00506125E96E015030
:1010DC006221EA6EEECF5EF088DE030E5A24006EBB
:1010EC00000E5B20016E005000016125E96E01507D
:1010FC006221EA6EEECF5EF078DE040E5A24006EAA
:10110C00000E5B20016E005000016125E96E01505C
:10111C006221EA6EEECF5EF068DE020E5A24006E9B
:10112C00000E5B20016E005000016125E96E01503C
:10113C006221EA6E300EEE5C006E016A000E015AFE
:10114C00640E046E000E056EEBDD00C05CF001C099
:10115C005DF0030E5A24006E000E5B20016E0050F1
:10116C006125E96E01506221EA6E300EEE5C006E74
:10117C00016A000E015A0A0E046E000E056ED0DDD7
:10118C0000505C24026E01505D20036E040E5A2444
:10119C00006E000E5B20016E00506125E96E01505F
:1011AC006221EA6E300EEE5C006E016A000E015A8E
:1011BC00025000260350012205D05A4A5B2AFAD667
:0611CC00006A016A120036
:1011D200936A926A5BC089FF5C5205E08A828A94B4
:1011E2008A968A9804D08A928A948A968A88120069
:1011F20061C004F062C005F063C006F064C007F08D
:1012020065C000F066C001F067C002F068C003F07C
:101212006CEC02F0010ED8B0000E006E005208E035
:1012220065C061F066C062F067C063F068C064F0D8
:1012320065C004F066C005F067C006F068C007F03C
:1012420061C000F062C001F063C002F064C003F04C
:10125200D0EC03F069C004F06AC005F06BC006F080
:0E1262006CC007F0D3EC02F063EC03F0120056
:101270005A6A5B6A5C6A5D6A6A0E956E8C840D0EB2
:101280000D6E0D2EFED78C9483B601D0FDD783A6AC
:1012900007D0010E5A26000E5B225C225D22F7D792
:1012A0005AC000F05BC001F05CC002F05DC003F00A
:1012B000C2DD00C06DF001C06EF002C06FF003C06F
:1012C00070F0000E0001716F000E726F7A0E736F76
:1012D000890E746F000E756F000E766F7F0E776F3C
:0812E000860E786F4BDD120051
:1012E8005A6A5B6A5C6A5D6A6A0E956E8C800D0E3E
:1012F8000D6E0D2EFED78C9083B201D0FDD783A240
:1013080007D0010E5A26000E5B225C225D22F7D719
:101318005AC000F05BC001F05CC002F05DC003F091
:1013280086DD00C06DF001C06EF002C06FF003C032
:1013380070F0000E0001716F000E726F7A0E736FFD
:10134800890E746F000E756F000E766F7F0E776FC3
:08135800860E786F0FDD120014
:101360005AC0E1FF5BC0E2FFE66A010E5D6E5C6A97
:10137000429040C0E9FF41C0EAFF4450000A13E137
:101380004750EF14016E0150000A0CE042A009D052
:101390005AC0E1FF5BC0E2FFFF0EE66E5CC000F0EA
:1013A0005BD0EED712D04750EF14016E0150000A07
:1013B0000CE142A009D05AC0E1FF5BC0E2FFFF0E82
:1013C000E66E5CC000F048D0EED746C08CF01CEC56
:1013D00002F045C08CF01CEC02F05D5216E0475064
:1013E000EF14016E0150000A02E05D505C125D36A0
:1013F0005D90020E455C8C6F1CEC02F0000000005A
:101400000000000000000000E8D74450000A10E18E
:101410004750EF14016E0150000A010ED8A4000ECF
:10142000006E5AC0E1FF5BC0E2FF00C0E6FF0FD0D4
:101430004750EF14016E0150000A000ED8A4010EAF
:10144000006E5AC0E1FF5BC0E2FF00C0E6FF4450FF
:0A1450005C18006E00C05CF0120092
:10145A00936A926A48C089FF8A828A948A968A889D
:02146A0012006E
:10146C0057DD4CC0E1FF4DC0E2FF00C0E6FF01C0FC
:10147C00E6FF34DF48C0E1FF49C0E2FF00C0E6FFF1
:10148C0001C0E6FFEFDE4AC0E1FF4BC0E2FF00C047
:0C149C00E6FF01C0E6FF006A016A1200D2
:0414A80023DD12002E
:1014AC00800E4918006E800E005C02E1000E485C54
:1014BC0008E248500008006E49C001F0000E0156C9
:0C14CC0004D048C000F049C001F012003C
:1014D800FF0E306EFF0E316EFF0E326EFF0E336E52
:1014E800FF0E3C6EFF0E3D6E000E3E6E000E3F6E10
:1014F800FF0E386EFF0E396E000E3A6E000E3B6E10
:10150800FF0E346EFF0E356E000E366E000E376E0F
:10151800AC8A900EAB6E948E949C9EAA03D0AECFEC
:0615280000F0FBD71200E9
:10152E00830E0001796F0F0E7A6F060E7B6F070E1A
:10153E007C6F800E7D6F250E7E6F000E7F6F806F2D
:10154E00816B7BEC05F00050000A06E148C05AF0B2
:0C155E0049C05BF0FEDE01D0006A120004
:10156A004E6A4F6A506A516A526A536A546A556A95
:10157A00566A576A586A596A090E966E090E8D6E2E
:10158A00840E0001796F0F0E7A6F7B6B010E7C6FF0
:10159A00800E7D6F250E7E6F000E7F6F806F816BD0
:1015AA007BEC05F00050000AD8A4A2D04BC05AF038
:1015BA00000E5B6ED0DE00C04EF04BC05AF0000E3B
:1015CA005B6EC9DE00C04FF04BC05AF0000E5B6E76
:1015DA00C2DE00C050F04BC05AF0000E5B6EBBDE9C
:1015EA0000C051F04BC05AF0000E5B6EB4DE00C072
:1015FA0052F04BC05AF0000E5B6EADDE00C053F0E5
:10160A004BC05AF0000E5B6EA6DE00C054F04BC011
:10161A005AF0000E5B6E9FDE00C055F04BC05AF0C8
:10162A00000E5B6E98DE00C056F04BC05AF0000EFA
:10163A005B6E91DE00C057F04BC05AF0000E5B6E35
:10164A008ADE00C058F04BC05AF0000E5B6E83DE93
:10165A0000C059F04BC05AF0000E5B6E7CDE00C031
:10166A005AF0340E0C6EF10E0D6E0D2EFED70C2EA6
:10167A00FCD7000000004E0E0001616F000E626F81
:10168A000C0E636F070E646F49C065F04AC066F0BE
:10169A0048C067F08EDC00C04CF001C04DF0340E3B
:1016AA000C6EF10E0D6E0D2EFED70C2EFCD700001F
:1016BA0000004CC000F04DC001F067DC00C061F0D2
:1016CA0001C062F002C063F003C064F0000E656FEF
:1016DA00800E666F330E676F870E686F000E696F34
:1016EA00000E6A6F780E6B6F850E6C6F7DDD10D001
:1016FA004850010A0CE1FF0E5E6EFBEC06F0FF0E8D
:10170A005E6EFBEC06F0FF0E5E6EFBEC06F0006A06
:02171A001200BB
:10171C00C80E5A6E43C05BF0010E5C6E54DD1200B5
:0E172C00C80E5A6E43C05BF05C6A4DDD1200C1
:10173A00936A926A48C089FF8A928A848A868A98BA
:02174A0012008B
:10174C000F0EC112070EB412A9DE2A0E956E936A03
:10175C008A6A8C6AB886B06ACF0EAF6EAC84B6DE7D
:10176C00020E0B6E040E0C6EBA0E0D6E0D2EFED705
:10177C000C2EFCD70B2EFAD70000486A68DE226AC2
:10178C00236A216A206A2A0E486E000E496E280EC2
:10179C004A6E000E4B6E260E4C6E000E4D6E60DEC9
:1017AC0000C024F001C025F0010E5E6EFBEC06F0CB
:1017BC002AC05EF0FBEC06F0020E5E6EFBEC06F04F
:1017CC0026C05EF0FBEC06F0030E5E6EFBEC06F042
:1017DC0028C05EF0FBEC06F0040E5E6EFBEC06F02F
:1017EC00195000081FE21950010A0AE1010E486E57
:1017FC00150E496E000E4A6EB2DE00C018F011D004
:10180C001950020A0EE1215006080AE2010E486E38
:10181C00150E496E000E4A6EA2DE00C018F0216A49
:10182C00212A0CD01AC05EF0FBEC06F01BC05EF057
:10183C00FBEC06F01CC05EF0FBEC06F0050E5E6ED9
:10184C00FBEC06F020C05EF0FBEC06F0060E5E6EC4
:10185C00FBEC06F0205000080DE21AC05EF0FBEC29
:10186C0006F01BC05EF0FBEC06F01CC05EF0FBEC5F
:10187C0006F00CD015C05EF0FBEC06F016C05EF066
:10188C00FBEC06F017C05EF0FBEC06F018C05EF047
:10189C00FBEC06F01FC05EF0FBEC06F02050000ADB
:1018AC0051E11D0E486E000E496E3BDE00C01EF06D
:1018BC00005000080AE2010E206E486A1A0E496EAA
:1018CC00000E4A6E4CDE00C01FF01E50010A07E1EC
:1018DC00070E2C6E030E436E020E196E33D01E5083
:1018EC00020A07E1070E2C6E030E436E010E196EF1
:1018FC0029D01E50030A07E1050E2C6E020E436E12
:10190C00020E196E1FD01E50040A07E1050E2C6E34
:10191C00020E436E010E196E15D01E50050A06E11B
:10192C00070E2C6E030E436E196A0CD01E50060A5D
:10193C0006E1050E2C6E020E436E196A03D02C6A5A
:10194C00436A196A20500008D8B015D1000E295CE2
:10195C0002E1190E285C40E2000E275C02E1190E30
:10196C00265C3AE3000E2B5C02E1190E2A5C34E390
:10197C0027502B5C02E126502A5C17E22150060A04
:10198C0002E0C6DE11D02CC048F0D1DE060E0B6E84
:10199C00130E0C6EAD0E0D6E0D2EFED70C2EFCD74D
:1019AC000B2EFAD70000000016D02150060A02E0D8
:1019BC00B7DE11D02CC048F0BADE060E0B6E130E3B
:1019CC000C6EAD0E0D6E0D2EFED70C2EFCD70B2E05
:1019DC00FAD700000000CFD0000E275C02E1190EF0
:1019EC00265C23E2000E295C02E1190E285C1DE244
:1019FC00000E2B5C02E1190E2A5C17E32150060A3B
:101A0C0002E086DE11D02CC048F091DE060E0B6E83
:101A1C00130E0C6EAD0E0D6E0D2EFED70C2EFCD7CC
:101A2C000B2EFAD700000000A6D0000E2B5C02E1B2
:101A3C00190E2A5C23E2000E295C02E1190E285CC7
:101A4C001DE2000E275C02E1190E265C17E3215003
:101A5C00060A02E065DE11D02CC048F068DE060EE6
:101A6C000B6E130E0C6EAD0E0D6E0D2EFED70C2ED6
:101A7C00FCD70B2EFAD7000000007DD0000E2B5C9B
:101A8C0002E1190E2A5C10E2000E295C02E1190E2B
:101A9C00285C0AE2000E275C02E1190E265C04E2C7
:101AAC002CC048F044DE67D0000E006E2950005C5C
:101ABC0002E12850190854E2000E006E2B50005C15
:101ACC0002E12A5019084CE2000E006E2750005C0F
:101ADC0002E12650190844E21F50185C15E2185018
:101AEC001F5C486E496A000E495ADADC800E026EA1
:101AFC00800E0118025C02E10050030805E221503F
:101B0C00060A01E005DE2BD018501F5C15E21850B8
:101B1C001F5C486E496A000E495AC2DC800E026E88
:101B2C00800E0118025C02E10050030805E221500E
:101B3C00060A01E0F5DD13D02150060A03E1486ADC
:101B4C0086DC0DD0000E295C02E1230E285C04E239
:101B5C0043C048F07CDC03D02CC048F078DC0BD0C0
:101B6C00000E006E2950005C02E12850190803E2B7
:101B7C002CC048F06CDC000E231802E1000E221879
:101B8C0006E18A80010E226E000E236E03D0226ABB
:081B9C00236A8A90F8D5FFD7F7
:020000040030CA
:0E000000210C3F1EFF8381FF0FC00FE00F4059
:00000001FF
